:020000040000FA
:1000000080313C28FF3FFF3F803120007F08F30014
:10001000111C11282200E401E40A8731E027803115
:1000200011100B1D1A280B1122000630DD01DD0A0C
:1000300020009507911D1F2888311B208031210049
:10004000111E28282000111E282888310720803101
:100050002000911E3528230019088031C9208031E5
:1000600023001D1D35289D139D17270016191611F5
:1000700073082000FF000900880181310B29AF00BF
:100080007908143A0319080079080D3A0319080091
:1000900079081E3A031D5D2821005D0803195428C4
:1000A000DD01DD0AB201B3012200D00A5008033A93
:1000B000031D69280130E00669282200C901CA0130
:1000C00020002E082100DD00B201B3012200D00182
:1000D000D00A20002F08E3001E30F801F9001708AD
:1000E000F5001608F4008C31502480312000B00156
:1000F0003008283E860001308700892080312C0896
:100100000F39103E81000330B00A30020318080096
:1001100078282200E508031D9328F401F40AF5016C
:100120008C3150248031230041082000A30023009B
:1001300040082000A20023003F082000A100230067
:100140003E082000A0004130A700C630A6004E3077
:10015000A5006D30A4008F3100273930200723001F
:10016000BE0030302000213D2300BF0000302000C1
:10017000223D2300C00000302000233D2300C100A9
:1001800041082000AD00230040082000AC00AD1362
:100190000800F20024004508F4208031031908000B
:1001A000240046084502F000F101031CF103C51BC1
:1001B000F103C61BF10A0F3A710403190800240069
:1001C0004508803A713E0318C5014508F420803186
:1001D0000319080024004508363E860002308700D7
:1001E00072088100C50A08004602F000F101031CF4
:1001F000F103C61BF103C51BF10A7003710408006B
:100200008131820702298A31E52A8F31F62F903118
:100210000D288A31A02A5030F601F701F801840038
:10022000003085001630883101208131A0308400F3
:100230000030850044308831012081312030840035
:10024000013085004A30883101208131A03084009E
:10025000013085004C30883101208131203084000C
:10026000023085003B30883101208131A03084008C
:10027000023085003C3088310120813120308400FB
:100280000330850040308831012081310A30F90087
:1002900088308400A63085006630860000308700F4
:1002A0000830A631822681310130840090308500EB
:1002B000E4308600003087000C30A6318226813180
:1002C00022002C30EA000130EB000330EC0000305B
:1002D000ED000130EE0023009630EC000030ED0020
:1002E0000130EE00FF30EF000330840098308500CD
:1002F0005B308600023087001230A63182268131C1
:100300002000822914302500E000DE0123009D1327
:100310002400951221009911191699161917991789
:1003200098311520813121008D1122008D1123007B
:1003300030300D11D72581312100CB001B309700C3
:100340008D1122008D112500E101FA30E10A6102D0
:10035000031CA529E101FA30E10A6102031CAB2963
:1003600022008D152500E101FA30E10A6102031C2B
:10037000B429E101FA30E10A6102031CBA298A3189
:100380002A2281310E2698314A20813193258131EC
:100390003326813121008E108D120E114B268131B2
:1003A000FF3011109700F730960021001114220041
:1003B0005D0BD729DD0188318A20813192312922D4
:1003C00081312000E008031D552AB7238131013A0D
:1003D000031D522A2500E00A6008323A031D2E2A26
:1003E000E0015726813125005E080319042AC33035
:1003F000DE012000B100A230B2005130692281310B
:1004000031082200E600292A220064082000A0000A
:10041000DE30A101A200A301A22381312108250021
:10042000DD00200020082500DC00B0302000B100F5
:10043000A230B20025005D082000B40025005C0851
:100440002000B30051306922813131082200E600DA
:10045000E40123001D1221001116552A0C30600200
:1004600003184A2AB2302000B100A230B2002500A1
:1004700060351E3E860002308700403F2000B300FA
:10048000413FB40051306922813131082200E60039
:1004900021001116250060080C3A031D552A23007F
:1004A0001D16552A23001D1E4F2A2000600B5B2AB3
:1004B00014302500E000DF30F401F40AA7319C2756
:1004C0008131013A031DD72925005F08BA23813104
:1004D000D729C6003330BF01C001BE002000E2268C
:1004E0008131C70803198A2B4708253A03197E2A48
:1004F0004608082781310319C00A6E2AC801C901BC
:10050000C501882AC515852A4515B10A0319B20AFD
:1005100031081C2781312D3A0319822A1D3A03190B
:10052000842A922AC51D952A4511162781319423C4
:100530008131031CC32AC801C90116278131B900C2
:10054000BA014908A1004808A0000A30A200A3018E
:10055000A223813139082007BB003A08213DBC00A5
:100560003B08D03EC800FF303C3DC900B10A03192A
:10057000B20A31081C27813194238131031CC32A1C
:100580009D2A4517D22AE2268131003A03198A2B87
:10059000643A0319D22A0D3A0319D22A1C3A0319D4
:1005A000C12A6E2A451BE12A3E08EF268131C21F6F
:1005B000E42A0330C504C109C209C10A0319C20AE9
:1005C000E42A3E08EF268131C701C70A47350027D4
:1005D0008131B900013FBA004202031DF12A3908F6
:1005E0004102031CF82AC70A4708053A031DE62AF8
:1005F000490848040319042B450803390319042B3F
:10060000FF30C807031CC9034708B900BA01B91B6A
:10061000BA033A08803ABB004908803A3B02031DFE
:10062000132B4808390203181F2B20004708B90074
:10063000BA01B91BBA03C8023A08C93B222B2000F1
:10064000C801C901451D402B4508033903192D2B4D
:100650004608F82681310319C00A490848040319DD
:10066000532B460886000230870030308100C60ACE
:10067000BF0A0319C00AFF30C807031CC9032D2B8A
:1006800049084804031DC5194A2B4608D226813162
:10069000031D452B450803390319532B4608F8263B
:1006A00081310319C00A4708BD00732B0A30AD0021
:1006B000AE013D3500278131A600013FA700420869
:1006C000A9004108A800AD2681312708B0002608FE
:1006D000AF00212781312D08303EC700460808278A
:1006E00081310319C00ABD033D0F562BC51D6E2A6B
:1006F0004908803AFF0080307F02031D812B0130C2
:100700004802031C6E2A20004608D22681310319B4
:100710006E2A832B4608860002308700810140083C
:10072000B2003F08B1000800F5003A30F40175024C
:100730000318A02B30307502031CA02BF401F40A1F
:10074000740C0800A401A501201CAA2B2208A407F0
:100750002308A53DA235A30DA136A00C2108200435
:10076000031DA42B2508A1002408A00008002100D7
:100770005B0808002000CD00CE01CF012100D30886
:1007800003192D2C512D2100D101D10A080002306E
:1007900021003F02BF01031CBF0A080006302100F0
:1007A0003F020318D72B3F08031DBF0A08005B0B4D
:1007B000E82B1E302000B100A230B200B430692214
:1007C00081313208CF003108CE002100DB018D2DB0
:1007D0000E1323009E162100DB01DB0A0800023005
:1007E00021003E02BE01031CBE0A080006302100A3
:1007F0003E020318FF2B3E08031DBE0A0800A63167
:10080000BC2E2100C001C00A0800210040030319CA
:100810000D2C4008023A031D142C0230C0000800C1
:100820004008033A03191B2CC001080021004008AE
:10083000023A031D102C0330C000080021004008BC
:10084000033A031D142C0130D301D30A9031152033
:1008500081310430B100A230162D20004D08423AFB
:100860000319EF2B013A0319C32B073A0319C72BBE
:10087000013A0319162C0F3A0319012C063A0319F1
:100880001E2C193A0319052C373A0319F62B063A90
:100890000319CE2B922D2100D72B2100B830CD018A
:1008A000CD0A2000B100A230162D2100D40A20006C
:1008B0004D08743A031D5E2C2100D4032100540816
:1008C0009831B42081318E30B100A130B2002100C6
:1008D0005408B22C0A302200C5070318C60A2000AB
:1008E0004D08353A031D792C0A302200C50200302C
:1008F000C63BE9302000B100A130B200220046081A
:100900002000B40022004508EE2C05302100E1074C
:100910000318E20A20004D086F3A031D942C05309D
:100920002100E1020030E23BB1302000B100A130F3
:10093000B200210062082000B40021006108EE2C02
:100940002100E30AE30A20004D086B3A031DAB2C9B
:100950002100E303E3036B302000B100A130B200BB
:10096000210063082000B300B430B401182D023018
:100970002100B0070318B10A20004D086E3A031D8C
:10098000C62C02302100B0020030B13B8931E22197
:1009900081311B30B100A130B200210031082000AC
:1009A000B40021003008EE2C05302100AE070318FA
:1009B000AF0A20004D08753A031DE32C05302100D5
:1009C000AE020030AF3B46302000B100A130B20093
:1009D00021002F082000B40021002E082000B300C1
:1009E000172D01302100EA066A0BFB2C98302000FD
:1009F000B100A230162D8B302000B100A230162D90
:100A00002100CA0A4A08033A031D1F2DCA011F2DDF
:100A10004E302000B100A230162DCE302000B100A3
:100A2000A130162D77302000B100A230B200B430D2
:100A3000692281313208CF003108CE008D2D4A085D
:100A4000003A0319082D013A03190D2D033A031931
:100A5000122D8D2D6330B100A230B200B430692266
:100A6000813110278131E32581312000CC01A43070
:100A7000B100A230B2004C08B300B4014C08D72535
:100A80008131B500B430B60169228131102781313E
:100A9000E325813120004030CC0A4C0203180800C5
:100AA000372D20004D08263A03196F2C653A03199B
:100AB000C32B183A03194D2C053A03196A2C3C3AFA
:100AC0000319FF2B013A0319002D073A03194B2C88
:100AD0000C3A0319F12C013A0319D42C023A0319E8
:100AE000A32C073A0319A02C013A0319B72C033A97
:100AF0000319BC2C013A03198A2C1F3A0319852CBF
:100B0000023A03192A2D063A0319572C013A031900
:100B1000D92C0C3A0319552C922D20004E08F400C4
:100B2000B430E32508003230D72581312000ED00B4
:100B30002100EB0020006D082100EC00530BC62DB6
:100B40000030D7258131CA000230D7258131F50028
:100B50000130D7258131E2007508E1000330D72547
:100B60008131E3000530D7258131F5000430D725E8
:100B70008131B1007508B0000730D7258131F5000B
:100B80000630D725AF007508AE0008000230CA0055
:100B90009030E1000130E200A630E3009030B00078
:100BA0000130B1008A30AE000230AF000800F4001E
:100BB000403074020318FF347408203E860003306E
:100BC000870001080800A00023001D1221000E1359
:100BD00023009E167408FF3A03190B2E740803199C
:100BE0000B2E2000A101F40803190B2E2108200769
:100BF000F500860002308700010823009A002000DB
:100C0000111A052E23009D1BFF2D2000A10A740838
:100C10002102031CF62D23001D16080020001812C7
:100C200098129811181511100B178B17210011101D
:100C300022001711971520009E171E17220014304E
:100C40009817181398129815181118109900200069
:100C50009E111E111E101F159F141F14181423001F
:100C6000D901DA01080023001E131E121E152100EF
:100C700011128E1723009D019F101D131D169D112B
:100C800021009116230044309D171F129F151F103D
:100C90009B009C0108002200143098159900200048
:100CA000181798179913191319129912080022008E
:100CB0003C082400A10022003B082400A0002200E0
:100CC000BB01BC01210056082400A200A3012000A2
:100CD00056082400A500200055082400A400200088
:100CE00058082400A700200057082400A600200070
:100CF0005A082400A900200059082400A800210057
:100D000035082400AB00210034082400AA0021008B
:100D100037082400AD00210036082400AC00210073
:100D200039082400AF00210038082400AE0022005A
:100D300034082400B100220033082400B000200051
:100D40006C082400B200B301200067082400B5003D
:100D5000200066082400B4000800AB01AC0127089D
:100D600026040319CD2EAA01AA0AA71BBA2EA6355E
:100D7000A70DB42EAB35AC0D27082902031DC22EDA
:100D800026082802031CC92E2608A8022708A93B0A
:100D90002B14A736A60CAA0BBA2E2C08A7002B08DA
:100DA000A600080086000230870020308100C60AB5
:100DB000BF0A0319C00AFF30C807031CC90349084A
:100DC000480408003208BA003108B900B10A031912
:100DD000B20A84003A0885000008C70008008600AF
:100DE0008701403FC100413FC200BE0ABE0A080061
:100DF0008600023087002D308100C60ABF0A080035
:100E0000113E8400A1300318013E8500003F080018
:100E100086000230870047088100C60ABF0A080022
:100E20003208CF003108CE00F400B4343108840019
:100E30003208850000080800840032088500000898
:100E400008002E082D0403193C2FF501F50AAE1BEE
:100E50002C2FAD35AE0D262F2E083002031D322F5C
:100E60002D082F02031C382F2D08AF022E08B03B8F
:100E7000AE36AD0CF50B2C2F3008AE002F08AD00B0
:100E80000800C300F030C30EC40EC40543080F3978
:100E9000C404F030C30508002000C300C401C4002E
:100EA0000830C301FF00440DC40CC30CFF0B532FCB
:100EB0004308080065302000BA006430BB006508B4
:100EC00008007508803AFF0080307F02031D08008B
:100ED00097307402080020005808C4005708080022
:100EE00020005A08C4005908080020005608C40011
:100EF00055080800DC005308DB00FD30DB07FF303D
:100F0000DC3D08003908F5003808F40022003908F3
:100F1000F4023A08F53B08003708F5003608F400FB
:100F200022003708F4023808F53B0800803A200018
:100F3000C5004408803A4502080020082200B30793
:100F4000200021082200B43D20000800F5003408EC
:100F5000F40022003508F4023608F53B0800C3000F
:100F6000210067082000543DC4000800AF0A03199F
:100F7000B00A003030020234AF01B001C301C40135
:100F80002000E4000800C5000030443DC6000030E9
:100F90004602080020006708EB006608EA00080027
:100FA0004735A03E86000230870008002200EA0094
:100FB0000130EB000800E40002302100C30008000B
:100FC0008C1221008C124E08EF278C1621008030E5
:100FD0008C16CE05FF302000970096000800F00028
:100FE000F101701CF62F22008C16F82F22008C12B3
:100FF0000930F036F10A710203180800F12FFF3FA3
:10100000FF3F640080010131890B02280034210078
:101010004108513E860002308700010823009A00F3
:101020002100C10A410822006606031D08002100B4
:10103000C1011112080091117528220824009100A5
:1010400008002400161B8128220023082400910098
:101050002200240B0800A00A08002400161B812887
:101060002200A503A51B8428A003260886000130C2
:1010700087000108240091002200A60A080024002D
:10108000161B8128961408002208013824009100BC
:1010900008002400161B8128240096150800270844
:1010A00086000130870024001108810022000530ED
:1010B000A70A203E8600FF30F000403F7007C03F87
:1010C000803A7F3E031C672824009612692824007A
:1010D000961616160800A508031984280630A000E5
:1010E0004C28210091118B15080022002008A00A2D
:1010F00084000930040203180800A2310435C83EF8
:1011000082002200A101A10A240008301615220045
:10111000A00008002000E008031DA2282300CF0A39
:101120000319D00A5008033AE83003194F06031D8B
:10113000A228CF01D001BA0A0319BB0A0319BC0ABD
:101140000319BD0A2000E401600BAC282100C5088A
:10115000031DAC282F30C5002100C308031DC501A5
:10116000C50A4508303A031DBA289131F221883169
:101170009C31A12C4508323A031DB8288D311A251F
:101180008831983100208831013A031DD32801307D
:10119000A7313B2788312300B60A0319B70A031980
:1011A000B80A0319B90A2000600BEE28A03021000C
:1011B0004702031CC70A2300D10A0319D20A5108A7
:1011C000083A5204031DF028D101D201BA0A0319CA
:1011D000BB0A0319BC0A0319BD0AF0282100C70184
:1011E00021004D0BF8280030CD01A7313B27883175
:1011F0002100690820006902031D022921006808F6
:1012000020006802031817292200D60A5608053A5A
:10121000031D1929D601200069082100E9002000DA
:1012200068082100E8008931E2218831192922006B
:10123000D60120006D0B90299831002088310038AC
:10124000031D90292100500803192A29A0304702C4
:10125000031C902923004B0820006802C3002300D0
:101260004C082000693BC4004308063E8731C32771
:1012700088310D30031945020318902923004D08C9
:1012800020006802C30023004E082000693BC40010
:101290004308093E8731C3278831133003194502BB
:1012A000031890292200D70A20006808C3006908A3
:1012B000C400C50143082300C207200044082300DE
:1012C000C33D200045082300C43D220057080C3AC6
:1012D000031DAD290C30D7012000A900AA01AB01E4
:1012E000230042082000AC00230043082000AD008A
:1012F000230044082000AE00A7316A2788312A085D
:101300002100E900200029082100E800D001D00ACE
:101310002300C201C301C4018931E2218831AD2912
:101320002300C201C301C4012200D70120006908C3
:101330002300CE00200068082300CD006930210082
:101340006902783003196802031CAD2920006D0B77
:10135000AD292C308731D627883120006D08210037
:101360006B060319D3296C0820006D060319D529D3
:101370006D082100EC002200DA01DA0A2000600B7F
:10138000D32921006C0BD3291B302000E40021005D
:10139000EB01EB0A22002C30DA01D401EA00013023
:1013A000EB008731CA279C31842C22000230DA0AF4
:1013B0005A02031CD32921006C08EB002200DA0139
:1013C0009C31782C2100ED01ED0A0E228931103E6E
:1013D0002000A40022228931002789310522893189
:1013E000252789312D082200C80020002C08220062
:1013F000C7000E228931063E2000A4002222893136
:101400000027893105228931252F2308B3002208BE
:10141000B2002108B1002008B000080020002730E9
:10142000AF01AE01AD001030AC0021006808200013
:10143000A000210069082000A100A201A301210051
:101440003008080027302100313D2000A500A6010A
:10145000A701080021000930951720009B001C10EF
:101460009C109C111C129C121C1391101C15911C99
:10147000372A25009E01931313139A131A1326007B
:10148000131393139E151E159E121E129C010A24FF
:10149000893122001D171D1021008E142500FF30F8
:1014A0009A161A1698009A151A1521008D162600FC
:1014B000EB2789310E152500EB27893106301515EC
:1014C00095101510951295110B118B162000950093
:1014D0002400951222008E150E1621008E150E1670
:1014E0002400133014179516951515119510151025
:1014F000920017139712210091112400971596114D
:101500000B108B110B178B178A27893100305B2446
:1015100022008C1321008C170D1523000D152100BE
:101520000E1423008C1621008C160C1722000C11AF
:101530008C100C108C1521008C1523000D14080044
:10154000640020003B08860087010108013A031966
:10155000C12A043A0319BF2A093A0319BF2A013ADA
:101560000319B62A033A0319DC2AE42A1F30B123EF
:1015700003302000E2002100CC01CC0A08003A0828
:10158000FB2FE208031DBF2A1430B123893102303A
:10159000200067027B3003196602031C080000303C
:1015A000B1238931F2278931312420003A0886009D
:1015B00003308701810008000030B12389310530F4
:1015C0002000B5000330312C08006400832B610B30
:1015D000EA2A08000A2489310030B12B610BF12A74
:1015E00008000A3021004B02031808001430B12310
:1015F00089312000600B0800142C3A08FB2F2100D1
:10160000CB08031D092B6F082000AE00760880313F
:101610003F28F2278931312C142489312100CB084D
:10162000031D182B2000AE01AE0A760880313F283A
:10163000F2278931312C2100CB0120006208033AC6
:10164000031908000A2489318427893104302000D5
:10165000E200600B2D2B142489310C30B1232000C3
:101660003A0886000730870181000800610B392B9A
:10167000080021000030EF01EF0AB12389319F2FCC
:101680006208023A031D08002100EF08031D08004C
:1016900002304B0203180800CB0A0A2489310030BB
:1016A000B1238931F227893131242100EF01EF0A7A
:1016B00008006208023A031D08000030B123893196
:1016C00003302000B5000430542B6208023A031D99
:1016D0000800E108031D08000A2489310030B12305
:1016E000893105302000B500542B600B792B142470
:1016F00089310A2489310030B12389310530200035
:10170000B5000230542B20003B08860087010108F9
:10171000013A0319FD2A043A0319FD2A0E3A031966
:101720001B2B113A0319E72A013A0319EE2A073A4B
:101730000319752B013A0319592B033A0319402B4E
:101740003E3A0319652B093A0319FF2A033A031994
:101750000C2B6C3A0319362B163A0319B02BB02B0D
:1017600008002000AF0079080D3A0319062C2F0855
:1017700079060319062C79081E3A0319C42B2F0881
:10178000F9002100B201B30120002F08143A031D13
:10179000CD2B04302100D800DA0120002F080C3AAC
:1017A000031DDD2B97307802031CDA2B2100D801B2
:1017B000D803DD2B2100D801D80A20002F081F3ABA
:1017C000031DE52B64302400E50020002F08293A92
:1017D000031D062CC8302100D90020001708F50091
:1017E0001608F40050242000AE012E08283E860082
:1017F000013087008031892089312C080F39103E53
:1018000081000330AE0A2E02031CF52B2F082100A5
:10181000EE0008002200E30126009E111E112200A6
:101820000C1221000C120800E00123009D17250076
:10183000931513159A151A152600931513152000E4
:101840009110911C212C21008E108D120E11200060
:101850006208043A0319080002305B248931003021
:101860005B2CB60077080319392C04303502031CB1
:1018700008000030F801B20193316E235E3023007E
:10188000EC000130ED0003142000350DF7003608A0
:101890002200E10021000D30B201B301F90008007F
:1018A00074082300BE007508BF00C001C1012200FA
:1018B000E501E50A08002000A0008E2C2B30F40181
:1018C0009A2489318B1D622C0E30F4019A248931BF
:1018D0008B1D682C2A30F4019A2489318B19080059
:1018E0006E2C2B30F401F40A9A2489318B1D762C4E
:1018F0002130F4019A2489318B1D7C2C2A30F4018B
:10190000F40A9A2489318B190800832C0230F400E0
:101910002A309A2489318B1908008B2C2008003A30
:1019200003195E2C013A0319712C033A0319862C12
:10193000992C0800F500210091190800EC2C2200D8
:10194000A501A50A2300DF01032D2200A501A50A98
:101950007408023A0319A22CF408031DB12C0330B9
:10196000B22C1B302300DF00032D04302200A50021
:1019700023000230DF01E000F408031DC22CE10166
:10198000E10AC42C0830E1006930E200032D083080
:101990002200A50055302300DF001030E001E100F7
:1019A000E200E3000630E4001430E5006430E600B5
:1019B000032D04302200A5001E302300DF00283054
:1019C000E001E100E201E20A032D2200A501A50ADF
:1019D0002300DF01DF0A032D7508093A0319E52CFE
:1019E000073A03199F2C013A03199F2C123A031945
:1019F000D92C3C3A0319C72C0B3A0319A52C013AF0
:101A00000319B52C032D2400951315138B11961172
:101A1000171797162000911121003A3091152200D6
:101A2000A2007508A300DF30A600A401A0012400D5
:101A3000161408002000C201742D2000EC08031DBC
:101A4000302D03305E02B73003195D02031C302DC8
:101A5000610B2D2DED01ED0A982D0230ED00982D32
:101A6000ED01ED0A21006D0B3D2D013020005E02DD
:101A70005E3003195D02031C492D2100ED08031D92
:101A80005C2D003020005E02323003195D02031825
:101A90005C2D4208FF3A031D552DFF30DD00DE00AE
:101AA0000730EC002100D20A982DEC0A6B2789310F
:101AB0002000C201C20A712D033020005E02B7303F
:101AC00003195D02031C6E2D420B672D4D2DEC0397
:101AD0006B278931FF302000C200712D2100D20117
:101AE000982D6427893164277030913160218931C4
:101AF0003408DE003308DD006C08073A031D1D2D95
:101B000021006D0B8B2D013020005E025E30031929
:101B10005D02031C972D2100ED08031D1D2D0030D3
:101B200020005E02323003195D0203181D2DED0105
:101B3000842720005E08A1005D08A000FD30A200FF
:101B4000FF30A3008331A22389312108E900200856
:101B5000E8006C35013E8400A1300318013E850089
:101B6000003FBA00013FBB003A08E8073B08E93DE7
:101B70002100500BC32D2F082000C10021002E088A
:101B80002000C000BE2EAE302000C0000130C100D9
:101B9000BE2ED5278931C927893125278931B1271B
:101BA0008931182E63082000A200A30121006308D8
:101BB0002000A000A1018331A22389312008BA00AE
:101BC0002108BB00C22789313A08AC003B08AD00B0
:101BD0007530AE01AF01B3001230B200B430B100C5
:101BE000B001252789316808A4006908A500A6016D
:101BF000A7016808A0006908A100A201A3010027AD
:101C000089312008BC002108BD002208BE0023083D
:101C1000BF001230BF36BE0CBD0CBC0C890B0A2EA7
:101C20003F08A3003E08A2003D08A1003C08A00018
:101C3000DC27893100278931DC2789310027893168
:101C40000522893125278931E3278931CA2E2000D1
:101C50004008AC004108C927893125278931B127BF
:101C60008931DC27893100278931DC278931002738
:101C7000893105228931252789312D082100AD00C0
:101C800020002C082100AC0022004808C0004708B2
:101C9000BF00200068082200BF022000690822005F
:101CA000C03B3F08C1074008C23DC21F5A2EC101B8
:101CB000C2017E2E21002D082000BB0021002C082F
:101CC0002000BA00C22789312200420820003B02CE
:101CD000031D6E2E2200410820003A0203187E2EBA
:101CE00021002D082200C20021002C082200C10082
:101CF000C236C10CC236C10CC236C10C220040082B
:101D00002100AB0022003F082100AA00AB37AA0C3B
:101D1000220042082000BB00220041082000BA0037
:101D2000BA35BB0DBA35BB0DBA35BB0D3A0821002B
:101D3000AA0720003B082100AB3DAB1FA22EAA0141
:101D4000AB01AE2E2B082D02031DA82E2A082C0253
:101D50000318AE2E2D08AB002C08AA00220048085C
:101D600047040319BA2E61304802A930031947020B
:101D7000031CCA2E2100AA01AB01CA2E21004A0869
:101D8000003A0319C92D013A0319D22D033A031958
:101D9000272ECA2E2100D5278931C9278931252729
:101DA0008931B1278931DC27893100278931DC2746
:101DB0008931002789310522893125278931E32797
:101DC000893104302B02003003192A02031CEC2E47
:101DD000FF30AA000330AB002000610BF42EFF306F
:101DE0002100AA000330AB0021004D0BFA2ECC30AD
:101DF000AA00AB01EA08031D0800AA01AB01080014
:101E0000A801A901AA01AB01201C0E2F2408A807D4
:101E10002508A93D2608AA3D2708AB3DA435A50DF8
:101E2000A60DA70DA336A20CA10CA00C230822041A
:101E300021042004031D042F2B08A3002A08A2005C
:101E40002908A1002808A0000800B401B501B601C6
:101E5000B7012F082E042D042C0403195B2FB801A1
:101E6000B80AAF1B382FAC35AD0DAE0DAF0D302F0E
:101E7000B435B50DB60DB70D2F083302031D4A2F2B
:101E80002E083202031D4A2F2D083102031D4A2F4E
:101E90002C083002031C552F2C08B0022D08B13B32
:101EA0002E08B23B2F08B33B3414AF36AE0CAD0C4A
:101EB000AC0CB80B382F3708AF003608AE00350829
:101EC000AD003408AC000800F4014430F40A740298
:101ED00003180800652F20006C1C712F21000C11C5
:101EE000732F21000C152000EC1C792F21008C1081
:101EF0007B2F21008C1420006C1D812F21000C10E1
:101F0000080021000C14080021000C158C140C147E
:101F10008C15080023008C018D0121009E171E08DE
:101F20008F3920389E007C309D0420001113210041
:101F3000823011131D149D1022009700080020000C
:101F4000D008031D0034D108031D0034D208031D3E
:101F50000034F708031D003479081E3A031D0134CC
:101F600000346908BB006808BA00BB36BA0CBB363F
:101F7000BA0CBB36BA0C3A08A0003B08A100A2017B
:101F8000A3010800BB36BA0CBB36BA0CBB36BA0C80
:101F90000800AD001E30AE01AF01B300B030B2009A
:101FA000A330B100D730B000080061082000AC00B9
:101FB00021006208200008006A08A4006B08A50040
:101FC000A601A70108002D082100AB0020002C0865
:101FD0002100AA00080093161316910093151315FB
:101FE0002100080003302000B5000134F708031D6C
:101FF00008003A08FB2F86000530870181000800A1
:10200000FF3F01340034043400343034753401347B
:102010000134013401340A34013443219031ED009C
:102020006B209031FC21010008002000A100383015
:10203000A2002108F50022081A2190314030A20A9E
:1020400022020318080019280830A1002108853150
:10205000D7259031F50021081A2190312630A10AA8
:10206000210203180800262821004A082000AD009C
:102070000030D4209031210062082000AD000130F2
:10208000D4209031210061082000AD000230D4201E
:102090009031210063082000AD000330D42090313E
:1020A000210031082000AD000430D42090312100FF
:1020B00030082000AD000530D420903121002F08D9
:1020C0002000AD000630D420903121002E082000E1
:1020D000AD000730D428E108031D080034209031FA
:1020E000210054082000AD002630D4200A30A6007C
:1020F000A701220046082000A90022004508200070
:10210000A8008631AD2690312608AD002730D420B6
:10211000903121004C082000AD003130D4209031A6
:1021200021004B082000AD003030D42090316D08E4
:10213000AD003230D42090317608AD003330D42059
:102140009031230039082000A30023003808200024
:10215000A200230037082000A10023003608200039
:10216000A0002830E120903123003D082000A3008A
:1021700023003C082000A20023003B082000A1000F
:1021800023003A082000A0002C30E1208331B7233F
:1021900090312000AD003430D42090312100530B19
:1021A000D3280A2190313229F500383075020318FE
:1021B00008007508203E8600033087002D08810046
:1021C0000800F400F50120307507A4007408240706
:1021D000A5008600033087002008A6002108A7007C
:1021E0002208A8002308A90075080907090709079C
:1021F000890AFF280310A90CA80CA70CA60CFF3E07
:10220000031DFA28260881000430F50A7502031818
:102210000800E3282000A10121088531D72590314D
:10222000F50021081A2190310830A10A2102031873
:1022300008000C29A00023009100750893001513D5
:10224000951315158B138B1B2329553023009600EE
:10225000AA3096009514151195182C2920001212F9
:102260008B17080028302000A10021088531D725D0
:102270009031F50021081A2190313530A10A210250
:10228000031808003529F22190310C118C100C1024
:10229000F5011430F50A7502031C492970306021DC
:1022A0003408DE003308DD008F318427903101309F
:1022B00020005E02F43003195D020318013400347B
:1022C0002000B700A32921001D11682921001D1538
:1022D0009D11702921001D116F2921001D159D15CB
:1022E0001D12802921001D11772921001D159D1126
:1022F0007F2921001D117E2921001D159D151D1608
:102300009D12962921001D11872921001D159D115F
:102310008F2921001D118E2921001D159D151D12CB
:10232000952921001D119D111D169D161D13D229E1
:1023300021001D159D159F2921001D159D111D169C
:102340009D161D17D2293708013A03196329033A4C
:1023500003196629063A03196A29033A03199829C9
:102360000F3A03196D29013A03199C29193A0319E7
:102370007229303A03197529603A031979292C3AE0
:1023800003198229013A03198529033A0319892976
:10239000013A03198C291F3A03199129F03A0319BC
:1023A0007C29D2298F31642790312000111321001C
:1023B0009D142000111FD92921001B082000B800FE
:1023C000B90121001C082000B500B601B600B50116
:1023D0003508B8073608B93D11133908B400380874
:1023E000B300080026009E111E1122000C122100CD
:1023F0000C128C118F316B2F8B132600FF309E1126
:102400001E1121008C008D008E0023008C018D0197
:1024100021001D1020009E13220097132000181089
:102420002500931113119A111A11260093111311FB
:102430000B128B108B120B112000990127009401B5
:102440009501210091110B1791160B108B1564004B
:1024500008002100B20A0319B30A7908003A0319E7
:10246000722A0C3A03194B2B013A03194A2A193ADA
:102470000319D42A013A0319112B0B3A03197F2AA5
:10248000013A03197A2A373A03191C2B013A031926
:102490001D2BEA2A330823006D06031D532A210051
:1024A000320823006C06031D0800FA30EC00ED0131
:1024B0002100B201B301F70B602A6E08F900080091
:1024C000770B672A5E302300EC000130ED007718AF
:1024D0006E2A2000B201220061086E2B200000301D
:1024E000B2016E2B7808031DF80302302000B20001
:1024F00000306E2B02302000B20003306E2B220021
:10250000C90A0319CA0A0F304A02013003194902E5
:10251000031C922A7830C9000530CA01C935CA0D9A
:10252000890B8E2A21005D0803199A2A5D08023A58
:10253000031DB12A20000030B201B20A6E2392318D
:102540002100DC0133032C3003193206031D08007F
:10255000B201B301DD0A5D08033A031D0800DD0185
:102560005D2A5D0B08005C08FF3A031DDC0A2200AF
:102570004A082000B300220049082000B200C4230A
:10258000923121003303C23003193206031D0800C3
:102590000230B201B301DD00DD016E08F900200058
:1025A000D001D101D201080090307802031CEB2A3F
:1025B000DA08031DEB2AFD30D8009030F800DA016C
:1025C000DA0A32080339031DE72A5808F807AE264D
:1025D00092316E230800043078020318E12A5A0B66
:1025E000E12AF901E12AFB30D8004B3078020318C8
:1025F000E12AD801E12A03300B2B65086404031D8E
:102600000A2B2830D801D80378020318E12A0230B7
:10261000D800E12A0430D800C93078020318F92A1A
:10262000E12A5508003A0319FD2A013A0319F32A51
:10263000033A0319FB2AE12A012B22005330DE0A58
:102640005E02031C362B2000E108031D362B2100FF
:10265000590803192C2BD90329305902031C332B99
:102660002200DE01362B47302200DE0078082100F0
:10267000590203183E2BD801F803442B590878025D
:102680000318442BD801D80A5808F8072200600B19
:102690004A2BB32EB22C32080739031D080096309E
:1026A0005702031C582BD801D8034F08DE005D2BBE
:1026B000D708031D5D2BD801D80A5808D7073C302E
:1026C0005E020318692B5E0857020318692B5E0827
:1026D0006A2B5708F800AE2692316E2B2000B3000B
:1026E000B308031D7E2BB40134085B3E8600023024
:1026F00087007808A9269231031C742BB208031DA9
:10270000892BB4015A269231A92692310318B92B8C
:10271000822B2200CF0A2000320822004F02031C25
:10272000B92BCF012000B4015A26923101020318BF
:102730009E2B3408503E8600810AB42B33083307A1
:1027400033075B3E3407F50086000230870034080B
:10275000503E84008501000801020318B42B3408A0
:10276000503E8600870181030330B40A3402031C03
:10277000942B20005008B025923120005108E2250A
:10278000923120005208142E3308B5003208B400EC
:102790000530B536B40C890BC92B3408BC002200B7
:1027A000AD0A0319AE0A28082000A000462683318E
:1027B000A223923121082300A800A90122002908A0
:1027C0002000A00046268331A22392312108230055
:1027D000AA00AB0122002A082000A000462683316F
:1027E000A223923121082300AC00AD012908AF00DB
:1027F0002808AE002000BE013E35A83E860001300C
:1028000087003E35AA3E840001308500003FB400B9
:10281000013FB500B536B40C340869269231010782
:1028200069269231BB0071269231B40086000230D5
:102830008700803001023E08031C3E2C383E860093
:10284000870171269231B4008400023085003C0873
:10285000000281003E08383E86003B08A000A1012E
:1028600098269231B40071269231B500840002306E
:1028700085000008B600340836025D2C383E86001C
:10288000870171269231B40084000230850000086F
:102890003C07810071269231B40086000230870027
:1028A0003B08A000A10171269231B5008400000808
:1028B000B6009826B70036083702A200A301031C11
:1028C000A3038331A223923121080107BD00210017
:1028D0005C08FF3A0319862C20003E08503E860013
:1028E00087013D0801023E0803187A2C503E8600FD
:1028F000810AA32C503E8600870101083D0203187F
:10290000A32C3E08503E86008103A32C20003E08E5
:10291000503E860087013E08503E84008501000835
:10292000B400B5013D089E268331A22392313408BC
:102930002007B6003508213DB700B736B60CB736CC
:10294000B60C360881000330BE0A3E02031CFC2B85
:102950005008B025923120005108E2259231200024
:102960005208142E20005608803AFF0080307F0263
:10297000031DBC2C153055020318FA2C20005608F4
:10298000803AFF007F307F02031DC82CEC305502D7
:10299000031CFA2C20005808803AFF0080307F0288
:1029A000031DD42C153057020318FA2C20005808A8
:1029B000803AFF007F307F02031DE02CEC3057028D
:1029C000031CFA2C20005A08803AFF0080307F0256
:1029D000031DEC2C153059020318FA2C20005A085C
:1029E000803AFF007F307F02031DF82CEC30590243
:1029F0000318022DC73021003D020318092DBD0A1E
:102A0000BD0A092D023021003D02031C092DBD0322
:102A1000BD0328303D02031C0F2D2200DE012100E2
:102A20003D0878020318162DBC01192D3D087802C7
:102A3000BC002200AB0A0319AC0A28082000A00041
:102A400050268331A223923121082300A1002000C7
:102A500020082300A0000F30A00EA10EA005210821
:102A6000F039A0040F30A105220029082000A000A1
:102A700050268331A223923177269231A200200082
:102A800033082300A30022002A082000A0005026BB
:102A90008331A223923177269231A400200033089B
:102AA0002300A5002108A7002008A600F501753520
:102AB000A03E8600013087007535A23E84000130BB
:102AC0008500003F2000B200013FB300B336B20CD6
:102AD000320869269231010769262200CD002000C4
:102AE000A000A10121003C0878022000A200A3015F
:102AF000031CA3038331A2239231210821003C0748
:102B00002200CE007508503E860087017508503EB1
:102B10008400850100082000B200B30122004E08A5
:102B200020009E268331A223923132082007B40070
:102B30003308213DB500B536B40CB536B40C3408B5
:102B400081000330F50A7502031C572D5008B0258B
:102B5000923120005108E225923120005208142EB3
:102B6000AF00FE30B0000330B1006430A600A70112
:102B70002F08A000A1012F08A200A3018331A223E6
:102B80009231A4268631AD2692312608B00227085C
:102B9000B13B8A2692312D1CD02D25009316D22DC3
:102BA000250093122000301CD82D25001316DA2D95
:102BB0002500131220008A26AE36AD0C2D08250004
:102BC00091000800AF00FC30B0000330B100643069
:102BD000A600A7012F08A000A1012F08A200A301B1
:102BE0008331A2239231A4268631AD269231260864
:102BF000B0022708B13B912692312D1C022E2600EF
:102C00009316042E260093122000301C0A2E260054
:102C100013160C2E2600131220009126AE36AD0C92
:102C20002D08260091000800AF00FC30B0000330F2
:102C3000B1006430A600A7012F08A000A1012F0851
:102C4000A200A3018331A2239231A4268631AD26AE
:102C500092312608B0022708B13B832692312D1C01
:102C6000342E25009A16362E25009A122000301C8C
:102C70003C2E25001A163E2E25001A12200083260F
:102C8000AE36AD0C2D08250098000800A1012200E9
:102C90002E082000A30022002D082000A20008001A
:102CA000A10122002C082000A30022002B082000F4
:102CB000A20008003408503E86008701330833071D
:102CC00033075B3E3407F5008400023085000008BE
:102CD0000800013E8400A0300318013E8500000872
:102CE00008006308630763075B3E3E07080020088F
:102CF000B2002108B3000430B336B20C890B7C2E2D
:102D00003208230008003108AE003008AD00AE36AE
:102D1000AD0C08003108AE003008AD00AE36AD0C89
:102D200008003108AE003008AD00AE36AD0C08002A
:102D30003E08383E8400850100080800A0000330EA
:102D4000A101A200A30108002108A9002008A800F1
:102D5000080081000330B40A34020800200000306B
:102D6000B201B20A08002000BE01BF015608B3003C
:102D70005508C8279231BA003308BB005808B30081
:102D80005708C8279231BC003308BD005A08B30069
:102D90005908C8279231B8003308B900C10141353C
:102DA000383E860087014135B03E84000130850001
:102DB000003FA000013FA1000730A200A301833122
:102DC000A22392312008043EB2000030213DE127C9
:102DD0009231403F3207B400413F333DB5004135A9
:102DE000B03E8600013087003408C03F3508C13F3F
:102DF0004135B03E86000130403FB200413FE127FF
:102E000092314135383E86008701403FB400413F52
:102E1000B50032083402B6003308353BB7004135FF
:102E2000A03E86003608810741313708813D7F3159
:102E30004135C0279231803AFF0080307F02031D68
:102E4000232F01303202031C5F2F20004135C027A1
:102E5000923100303302053003193202031C352F42
:102E60004135A03E86000430372FFC279231870180
:102E7000810241310030813B7F314135C0279231A1
:102E80003208BE073308BF3DF42792317808D427B3
:102E9000923103184D2FC001A12F4135C027923127
:102EA000003033020B3003193202031C5D2F413511
:102EB000A03E8600010878029F2F7808A02F2000EE
:102EC0004135A03E860087014131811F5D2F41358C
:102ED000C0279231EC279231053003193202031CCE
:102EE000762F4135A03E86000430782FFC279231A2
:102EF0008701810741310318810A4135C02792318A
:102F00003208BE023308BF3BF4279231B209B3093D
:102F1000B20A0319B30A7808D4279231031C4B2F45
:102F20004135C0279231EC2792310B300319320220
:102F3000031C5D2F4135A03E8600010878070A3E3C
:102F4000C0004108503E86008701400881000330E0
:102F5000C10A4102031CCF2E00303F022930031961
:102F60003E02031CB52F2200DE0120005008B025D0
:102F7000923120005108E225923120005208142E8F
:102F8000A03E86008701403FB200413FB3000800E9
:102F9000B200B3000830B201FF00330DB30CB20C25
:102FA000FF0BCD2F320808000A3EB4000030031892
:102FB0000130B50033083502031D08003208340221
:102FC0000800B300330DB30CB20C330DB30CB20CCC
:102FD000330DB30CB20C0800B209B309B20A0319DD
:102FE000B30A0030330208004135A03E8600403F5E
:102FF000B200413FB30008004135A03E86000134D5
:10300000220063080800FF34FF34FF34FF3400342B
:103010000034FF34FF3400340034FF340034003413
:103020000034FF34FF34643400342000A001A00ACF
:10303000200B0800A1012108203E860003308700F4
:10304000210842209831810020004030A10A21024D
:10305000031C1B280230A000A2012208203E86008B
:1030600003308700220842209831010603193B28CB
:103070002000A001A00A20004030A20A220203186A
:1030800018282D28F400230091001513951315140A
:103090001308080020003330BC01BC0A8531D72555
:1030A0009831F6003830BD003D088531D72598317C
:1030B000013A031DBC013F30BD0A3D02031C5428E8
:1030C0003C082100D30031308531D7259831CC0020
:1030D0002830D520983123082300B9002000220889
:1030E0002300B800200021082300B700200020089A
:1030F0002300B6002100D308031D88280830D4001F
:10310000B4209831F4302200C5000130C600AB284D
:1031100026308531D7259831D400B4202730853129
:10312000D7259831A0000A30A101A200A301833164
:10313000A223983121082200C60020002008220086
:10314000C50034308531D7259831013A031DAB28AD
:1031500001301221983165301C216530BA00BB0165
:1031600065088131002108002000AF000A30A60068
:10317000A7012F08AD000530AE01AD35AE0D890BAE
:10318000BD282D08A8002E08A9008631AD262708E5
:10319000B1002608B0003108A1003008A0003108B5
:1031A000A3003008A2008331A22BF400233E860046
:1031B0000330870001082000A700A601A501A40193
:1031C0007408223E86000108AA00A901A80174081B
:1031D000213E86007408203E8400033085000008EC
:1031E000AB000108AC00AD012B08A8072C08A93DD5
:1031F0002D08AA3D2808AE002908AF002A08B00013
:10320000B1012E08A4072F08A53D3008A63D3108BE
:10321000A73D2708A3002608A2002508A10024082E
:10322000A0000800F40074082100DB005B0B08001C
:103230000E1323009E1608002000A0000130F400A9
:1032400020082229F5008600870174088100080003
:103250008731752799318731412799314408803A60
:10326000C50021003508803A20004502031D3C2995
:1032700021003408200043020318432901302100B3
:10328000B4020030B53B87316B2799318731412734
:10329000993121003708873196279931031D532929
:1032A00043082100360203185A292100B60A0319DF
:1032B000B70A752987316B279931873141279931B1
:1032C0004408803AC50021003708803A20004502B2
:1032D000031D6E29210036082000430203187529BA
:1032E00001302100B6020030B73B87317027993199
:1032F0008731412799312100390887319627993143
:10330000031D852943082100380203188C29210058
:10331000B80A0319B90AA72987317027993187316B
:10332000412799314408803AC50021003908803A84
:1033300020004502031DA029210038082000430277
:103340000318A72901302100B8020030B93B210041
:10335000600B4E2A35088731A6279931A631902671
:1033600099318731612799310318CE29210087319E
:103370008C279931A631902699318731612799316F
:103380000318CE292100873182279931A631902652
:103390009931873161279931031C4E2A2100DF08BA
:1033A000031D642A3508F5003408F40022004B0898
:1033B000F4024C08F53BA631902699317508803A05
:1033C000FF0080307F02031DE7293D30740203189F
:1033D000192A21003708F5003608F40023005508A3
:1033E000F4025608F53BA631902699317508803ACB
:1033F000FF0080307F02031DFF293D307402031857
:10340000192A21003908F5003808F400230057086C
:10341000F4025808F53BA631902699317508803A98
:10342000FF0080307F02031D172A3D307402031C09
:10343000402A003021003B02153003193A02031CD8
:10344000262A1430BA020030BB3B282ABA01BB013D
:1034500035082200CC00210034082200CB002100D6
:1034600037082300D600210036082300D5002100AC
:1034700039082300D800210038082300D700642A27
:103480002100BA0A0319BB0A01303B02F4300319C8
:103490003A02031C642ADF01DF0A642A003021009B
:1034A0003B02153003193A02031C5B2A1430BA029E
:1034B0000030BB3B5D2ABA01BB0100303B026430E7
:1034C00003193A02031CDF0121005F0B772A230056
:1034D000DB0A0319DC0A5C084E3A203003195B064C
:1034E000031D7A2ADB01DC012100E0017A2A230096
:1034F000DB01DC012100E008031DDF2A35088731EC
:10350000A6279931A631902699317508803AFF0097
:1035100080307F02031D8E2A293074020318B42ADA
:10352000210087318C279931A63190269931750871
:10353000803AFF0080307F02031DA02A29307402E8
:103540000318B42A2100873182279931A6319026A9
:1035500099317508803AFF0080307F02031DB22A3E
:1035600029307402031CD02A210035082200B6003D
:10357000210034082200B500210037082200B800DD
:10358000210036082200B700210039082200BA00C5
:10359000210038082200B9002300DD01DE01DF2A06
:1035A0002300DD0A0319DE0A5E03F43003195D0609
:1035B000031DDF2ADD01DE012100E001E00A210018
:1035C000270822003C02031DE92A210026082200C8
:1035D0003B020318F32A210027082200BC00210027
:1035E00026082200BB0021005F08D6005F0BFA2AE4
:1035F000CE17FB2ACE13003027027F300319260294
:10360000031C052B7E30A600A701270826040319FA
:103610001F2B4E087F392000C300C401210027085A
:1036200020004402031D182B21002608200043021D
:1036300003181F2B80302100CE052608CE048731C9
:103640005A2799318131002199312000E40121006C
:10365000510B2D2B05302000E40087315A2799317A
:103660008131002199312000E401610303197F2B8E
:1036700021004308031D7F2B003022006B022830FD
:1036800003196A02031C7F2B0230200067027C3082
:1036900003196602031C582B2100CA30C60A4602D1
:1036A000031C7F2B1E302000E400F601F60A7D2B60
:1036B000023067023730031966020230031C6B2B9D
:1036C0007602031C6A2B2100CA30C60A4602031880
:1036D000552B7F2B02306702283003196602031C2A
:1036E0007D2B03307602031C7D2B2100CA30C60AD5
:1036F0004602031C7F2B0230F6002100C6018731F1
:103700005A2799318131002199312000E401610B60
:10371000582C2100C508031D582CA80A0319A90A12
:1037200000302902643003192802031CD92B4808F1
:10373000033A0319D92B0A3020005F02031CA72B80
:10374000043022005C020318A72B5A30A82B5B30F0
:103750002000E400C7018731D0279931403FC300E2
:10376000413FC400AD004735083E9031D420993127
:103770008731D02799310108AD004735093E903196
:10378000D42099314708473E86000230870001085F
:10379000AD0047081C3E9031D42099310A30C70A49
:1037A0004702031CAB2B90312420993103302100B8
:1037B000C800013029022C3003192802031C4C2CAC
:1037C0004808033A031D4C2C2000E1014C2C28032F
:1037D0002904031DEF2B07302000E400582C280893
:1037E000143A29040319F82B2000ED08031D582C66
:1037F00008302000E400002C2000ED08031D582CA8
:1038000002302100C800582C20006D0B402C2200F3
:10381000DB0A5B08023A031D582CDB0121000A3049
:10382000C801C80A20005F020318582C5F35A03E6B
:103830008600023087006808C03F6908C13F5F0802
:10384000473E86006C0881005F35A03E860002304E
:10385000403FC300413FC40033304402F4300319F9
:10386000430203183D2C07305F0203183B2C043041
:103870002200DC003D2C2200DC0A2000DF0A582C4C
:103880006D08023A031D492C64302100A800A901EB
:10389000582C2200DB01582C21004808003A03195B
:1038A000E72B013A0319FC2B033A0319042C582C7B
:1038B00087315A2799318131002108007830E8009A
:1038C0006930E900D00122001A30C701C801200088
:1038D000E40040308731D6279C31842C1B30752C76
:1038E0007830E8006930E9001C302000E400842CC6
:1038F00021006C08003A03195E2C013A03196E2C62
:10390000033A0319702C842C200064081C3A031914
:10391000972C64081A3A0319972C0330210052029D
:10392000031C972C20302000E4002100D20120004D
:1039300069082300CC00200068082300CB00210088
:10394000C50187315A279C31813100219C312000EB
:10395000E401A6317C269C3175082000D40074084F
:10396000D3002100C508031D5E2E0530220054023D
:103970000318C02CD40A2000540887317A279C31C0
:10398000210065086404031DE82C22006C08200057
:103990005307C30022006D082000543DC4005C02A0
:1039A000031DD42C43085B020318E82C2200873146
:1039B000B6279C3103192F02031C162D2100E401A8
:1039C000E40AE501220008308731BC279C31162D1E
:1039D000210064036504031D132D660820005307AE
:1039E0008731AF279C315C084402031DF92C5B082A
:1039F00043020318132D6D0B132D22008731B627B8
:103A00009C3103192F02031C162D2100E401E5014E
:103A1000220007308731BC279C31600B162D0930FE
:103A20002100C200162D2200AF01B0012100640365
:103A30006504031DAF2D003022003202033003194C
:103A40003102031C272D0330B1020030B23BEA0AD9
:103A50000319EB0A01306B02403003196A02031CA0
:103A6000382D4030EA000130EB0046302000E40001
:103A700020005C085402031D3F2D5B08530203180D
:103A8000502D2200D10AD20151080A3A031D802D7F
:103A900001302000DB020030DC3B2200D101802D10
:103AA00054085C02031D562D53085B020318812D38
:103AB0005B08053EC30000305C3DC400540844026E
:103AC000031D642D530843020318732D2200D30AEB
:103AD0005308C83A031D812DD301200054088731B3
:103AE0007A279C31812D2200D20AD1015208053A51
:103AF000031D802D2000DB0A0319DC0A2200D201FD
:103B0000D30121006608200053078731AF279C317D
:103B10005B08043EC50000305C3DC6004408460218
:103B2000031D942D430845020318412E0230210045
:103B3000E6020030E73B670204300319660203180F
:103B4000A42D0430E600E70167082200ED00210003
:103B500066082200EC00FF30EC07ED3D412E22000C
:103B6000B10A0319B20AD101D20120006D0BBB2D9D
:103B70002200EA01EB010030220032027830031902
:103B80003102031CC62D0A302000E4000030220060
:103B90003202F03003193102031CE52D2100E4014B
:103BA000E40AE50120005308FD3EC300FF30543D08
:103BB000C4005C084402031DDF2D5B0843020318A8
:103BC000E52D540887317A279C3120005C08540287
:103BD000031DEC2D5B0853020318142E2200440829
:103BE0002000A100220043082000A0000F30A20006
:103BF000A3018331A2239C3153082002C30054083F
:103C0000213BC4005B084307C5005C08443DC60077
:103C10000430C636C50C890B092E45082200C300A6
:103C2000200046082200C400220044082000C400EE
:103C3000220043082000C300C436C30CC436C30CA2
:103C4000C436C30C440822006D02031D2B2E200035
:103C5000430822006C020318412E4408ED0043087B
:103C6000EC00ED36EC0CED36EC0CED36EC0C6D08A2
:103C70002100E70022006C082100E600E60A031993
:103C8000E70A05302200590203185E2E003020009A
:103C9000540264300319530203185B2E22000230D1
:103CA000D80A5802031C5E2E09302000E4000530BB
:103CB0002200D9005E2E2200D801D90A87315A2766
:103CC0009C31813100219C312000E40121000A3027
:103CD000C20A4202031CF72E3C30C2012000E4005D
:103CE0000730913160219C313408E7003308E60049
:103CF000A9006708AA006C30AB01913160219C31AA
:103D00003308A0003408A1005530A201A3000D30F3
:103D1000A4000030A501A6319F269C312008AC00EC
:103D20002108AD002208AE00A7316A279C312A087D
:103D30002200BE00200029082200BD00983100208A
:103D40009C310038031DAC2E20006708EB0066088C
:103D5000EA002100C901BF2E200067086B02031D85
:103D6000B32E66086A020318A92E21000230C90A80
:103D70004902031CBF2EC9018731CA279C310F306D
:103D800022003E02A13003193D02031CF72E210040
:103D9000430BF72E200066082B3C2100CF004C0B74
:103DA000DD2E023020006702063003196602031878
:103DB000DD2E0D308731DB279C3120000E1CF52EC7
:103DC00022003230D50A5502031CF72E02302000A3
:103DD00067020630031966020318F02E0D30F12E2B
:103DE0000E308731DB279C31F72E2200D501873139
:103DF0005A279C31813100219C3120000F30E40191
:103E000022003E02A13003193D02031C162F21009F
:103E1000C401C308031D262F0330F6000B30200019
:103E2000E40021008C17C301C30A262F2100430898
:103E30000319262FC40A4408643A031D262F0330B1
:103E4000C3000C302000E4002100C40187315A2750
:103E50009C31813100219C312000E401E4015608AD
:103E60002300C600200055082300C5002000580884
:103E70002300C800200057082300C70020005A086C
:103E80002300CA00200059082300C90068088731B0
:103E90004C279C31D5004408D6002300690887319F
:103EA0004C279C31D7004408D80023006A0887318A
:103EB0004C279C31D9004408DA000D1E6F2FE00812
:103EC0008B11031D682F0030A631E3269C316F2F24
:103ED0002230A631E3269C312A302000E400200065
:103EE0005608A1005508A0005608A3005508A200D6
:103EF0008331A2239C3121082200B4002000200835
:103F00002200B30020005808A1005708A00058085C
:103F1000A3005708A2008331A2239C3187319D273B
:103F20009C315A08A1005908A0005A08A30059085A
:103F3000A2008331A2239C3187319D279C315608F2
:103F4000F5005508F40023004508F4024608F53B47
:103F5000A63190269C3174082000C3007508C40067
:103F60005808F5005708F40023004708F4024808F1
:103F7000F53BA63190269C31740820004307C5000C
:103F80007508443DC6005A08F5005908F40023009E
:103F90004908F4024A08F53BA63190269C31740882
:103FA000200045072100A60075082000463D21009D
:103FB000A700003027020A30031926020318E32F56
:103FC000A601A701E72F0A30A6020030A73B8731E0
:103FD00075279C31873141279C3121003508873175
:103FE00096279C31031DF72F430821003402993195
:103FF000031828292100B40A0319B50A9931432965
:10400000003400340034003401340134013402340B
:1040100002340334043405340534063407340934D7
:104020000A340B340C340E340F341134123414347B
:104030001534173419341B341D341F342134233400
:10404000253428342A342C342F3431343434363463
:1040500039343B343E3441344334463449344C34AF
:104060004F345234553458345A345D3461346434E6
:1040700067346A346D3470347334763479347C3414
:1040800080348334863489348C348F34923495343C
:1040900098349B349E34A234A534A734AA34AD346A
:1040A000B034B334B634B934BC34BE34C134C4349F
:1040B000C634C934CB34CE34D034D334D534D734E9
:1040C000DA34DC34DE34E034E234E434E634E83448
:1040D000EA34EB34ED34EE34F034F134F334F434C8
:1040E000F534F634F834F934FA34FA34FB34FC3469
:1040F000FD34FD34FE34FE34FE34FF34FF34FF342F
:10410000FF34FF34FF34FF34FE34FE34FE34FD341C
:10411000FD34FC34FB34FA34FA34F934F834F63430
:10412000F534F434F334F134F034EE34ED34EB346C
:10413000EA34E834E634E434E234E034DE34DC34C7
:10414000DA34D734D534D334D034CE34CB34C93444
:10415000C634C434C134BE34BC34B934B634B334D8
:10416000B034AD34AA34A734A534A2349E349B3481
:104170009834953492348F348C3489348634833433
:1041800080347C3479347634733470346D346A34EA
:104190006734643461345D345A345834553452349D
:1041A0004F344C3449344634433441343E343B3448
:1041B00039343634343431342F342C342A342834DE
:1041C0002534233421341F341D341B34193417345F
:1041D00015341434123411340F340E340C340B34BF
:1041E0000A340934073406340534053404340334FE
:1041F0000234023401340134013400340034003418
:10420000003448343F34C934443445344A34C53426
:104210004F3455345534D5345A3451346034D23453
:104220006534013400340A34003464340034E83432
:10423000033410342734543465346D3470342034EE
:1042400043346F346E34743472346F346C342034CD
:10425000533465347434203450346F3469346E34DC
:10426000743420345B3470346534723463346534B0
:104270006E3474342F343134303430345D343A3465
:104280002034253475340D340A3400345434653404
:104290006D347034203443346F346E34743472347B
:1042A0006F346C3420344D346134783420345034DD
:1042B0006F3477346534723420345B3457342F34A0
:1042C0003134303430345D343A342034253475346C
:1042D0000D340A34003443346F346E347334743420
:1042E00061346E347434203452344D3453342034B9
:1042F000433475347234723465346E34743420341B
:104300005B3441342F343134303430345D343A341A
:104310002034253475340D340A3400345434613477
:10432000703420344134633463342034433468348B
:1043300061346E34673465342034543468347234F4
:1043400065347334683420345B3447342F3431346B
:1043500030345D343A342034253475340D340A3425
:10436000003443346F346E347334743461346E34D7
:104370007434203450346F347734653472342034DC
:104380005B3457342F343134303430345D343A3484
:104390002034253475340D340A34003443346F34FA
:1043A0006E34743472346F346C3420344C34613471
:1043B00077343A34203452344D3453342034433437
:1043C00055345234523445344E3454340D340A3456
:1043D000003454346134703420344D3461347834D2
:1043E0002034533470346134633469346E34673448
:1043F00020345B346D3473345D343A3420342534E6
:1044000075340D340A340034453445345034523454
:104410004F344D34203463346F346E346634693431
:1044200067347334203475346E346C346F346334D1
:104430006B34653464340D340A34003450346534DC
:10444000723466346F3472346D3461346E34633474
:1044500065342034443461347434613420344F344E
:104460006634663420340D340A3400340D340A3492
:104470000D340A344A34753475346C34203476344F
:10448000653472342034253464342E342534753444
:104490002E34253475340D340A34003443346F34EB
:1044A0006E34743472346F346C3420344C34613470
:1044B00077343A34203450344F34573445345234FE
:1044C0000D340A34003445344534503452344F34BA
:1044D0004D342034523441344D34203464347534F6
:1044E0006D3470343A3420340D340A34003443349B
:1044F0006F346E34743472346F346C3420344C3412
:10450000613477343A342034543445344D345034A3
:104510000D340A340034483445344134543445347D
:10452000523420344F34463446340D340A34003487
:1045300048344534413454344534523420344F34B3
:104540004E340D340A34003425342D34323464347E
:10455000203425342D34333464340D340A3400349B
:104560000D340A3425343034353464343B3400346B
:1045700066346C34693463346B3400340D340A347B
:1045800066343B3400340D340A3467343B34003431
:1045900088311D288831212888312D2888313F28ED
:1045A000883144288831492888314F2888316B2840
:1045B00088317128FF3FFF3FFF3FFF3FFF3FFF3F35
:1045C000FF3FFF3FFF3FFF3FFF3FFF3FFF3FFF3FFB
:1045D000FF3FFF3FFF3FFF3FFF3FFF3FFF3FFF3FEB
:1045E000FF3FFF3FFF3FFF3FFF3FFF3FFF3FFF3FDB
:1045F000FF3FFF3FFF3FFF3FFF3FFF3FFF3FFF3FCB
:104CF000FF3FFF3FFF3FFF3F23005A08F5005908E1
:104D0000F4000800FE0012001E00FE0B832E00348B
:104D10006434003430347534DC3401340734013405
:104D2000F51F080074092000A0007509A100A00A61
:104D30000319A10A2008F4002108F5000800A601C3
:104D4000A701A801201CAA2E2308A6072408A73D16
:104D50002508A83DA335A40DA50DA236A10CA00CD5
:104D6000220821042004031DA22E2608A0002708E3
:104D7000A1002808A200080036302000B100A230AF
:104D8000B2000730B301B30AB401B5001030B60168
:104D9000B700B430B80182316922A6313208CB00A5
:104DA0003108CA004B08803AFF0080307F02031DA3
:104DB000DB2E01304A02031C080020004A08F400E0
:104DC000B4308531E32DF400240095131513200031
:104DD0009111210091158B1124003A30961117176B
:104DE00097162200A2007408A300FC2E0430A50030
:104DF000042FA501A50A042F7408003A0319F62E02
:104E0000223A0319F92E042FE730A700A401A40ABF
:104E1000A0012400161408002000A100A001803A7F
:104E20001B3E031C192F7408860001308700011CEB
:104E3000222F2108803AE43E3627A7310318292F74
:104E4000011C272F7408860001308700810A36274D
:104E5000A73104300102031C342FA001A00A7408FA
:104E60008600013087008101200808007408860050
:104E70000130870008002000A2002200E30021008A
:104E8000ED0126009E151E1521000C122B08F500C1
:104E90002A08F4004B2F6227A731201C522F26002E
:104EA0009E16542F26009E12741C592F26001E1683
:104EB0005B2F26001E126227A136A00C20082600B8
:104EC0009C00080075082000A1007408A000A1360D
:104ED000A00C0800AF01B001B1012B082A0429047D
:104EE0000319952FB201B20AAB1B7A2FA935AA0D6F
:104EF000AB0D732FAF35B00DB10D2B082E02031D76
:104F0000872F2A082D02031D872F29082C02031C36
:104F1000902F2908AC022A08AD3B2B08AE3B2F147A
:104F2000AB36AA0CA90CB20B7A2F2F08A9003008B7
:104F3000AA003108AB0008002000A300A601A501CB
:104F4000240045082000A400F127A731031CAD2F41
:104F50002400460820002402B62FF127A7310318A9
:104F6000B72F24004608200024020F3EA50024008D
:104F70004608803A713E031CC32F20002508031900
:104F8000C32F2400C601200025087402A601031CBB
:104F9000D32F250826020318D12F2608E027A73192
:104FA000C92F2508DE2FF4080319DD2F2608E02776
:104FB000A73174082602031CD62F7408A20008002B
:104FC0002307A00086000230870024004608363EF2
:104FD00084000230850000088100C60A2000A60A6D
:104FE0000800240046082000A000A101A01BA10386
:104FF0002108803A803C031D080020082402080094
:10500000FF3FFF3FFF3FFF3FFF3FFF3FFF3FFF3FB0
:10501000FF3FFF3FFF3FFF3FFF3FFF3FFF3FFF3FA0
:10502000FF3FFF3FFF3FFF3FFF3FFF3FFF3FFF3F90
:10503000FF3FFF3FFF3FFF3FFF3FFF3FFF3FFF3F80
:107C700080313C280800FF3FFF3FFF3FFF3FFF3FB1
:107C8000FF3FFF3FFF3FFF3FFF3FFF3FFF3FFF3F04
:107C9000FF3FFF3FFF3FFF3FFF3FFF3FFF3FFF3FF4
:107CA000FF3FFF3FFF3FFF3FFF3FFF3FFF3FFF3FE4
:107CB000FF3FFF3FFF3FFF3FFF3FFF3FFF3FFF3FD4
:020000040001F9
:10E00000020001009000A6000100900002008A00BA
:10E010000000000000000000000000000000000000
:10E0200000000000000000000000000000000000F0
:10E0300000000000000000000000000000000000E0
:10E040000000000000000000000000000800320096
:10E0500000000000000000000000000000000000C0
:10E0600000000000000003000100000000000000AC
:10E070000100010001000100010001000100010098
:10E080000000000000000000000000000000000090
:10E090000000000000000000000000000000000080
:10E0A0000000000000000000000000000000000070
:10E0B0000000000000000000000000000000000060
:10E0C0000000000000000000000000000000000050
:10E0D000FF00FF00FF00FF00FF00FF00FF00FF0048
:10E0E000FF00FF00FF00FF00FF00FF00FF00FF0038
:10E0F000FF00FF00FF00FF00FF00FF00FF00FF0028
:10E10000FF00FF00FF00FF00FF00FF00FF00FF0017
:10E11000FF00FF00FF00FF00FF00FF00FF00FF0007
:10E12000FF00FF00FF00FF00FF00FF00FF00FF00F7
:10E13000FF00FF00FF00FF00FF00FF00FF00FF00E7
:10E14000FF00FF00FF00FF00FF00FF00FF00FF00D7
:10E15000FF00FF00FF00FF00FF00FF00FF00FF00C7
:10E16000FF00FF00FF00FF00FF00FF00FF00FF00B7
:10E17000FF00FF00FF00FF00FF00FF00FF00FF00A7
:10E18000FF00FF00FF00FF00FF00FF00FF00FF0097
:10E19000FF00FF00FF00FF00FF00FF00FF00FF0087
:10E1A000FF00FF00FF00FF00FF00FF00FF00FF0077
:10E1B000FF00FF00FF00FF00FF00FF00FF00FF0067
:10E1C000FF00FF00FF00FF00FF00FF00FF00FF0057
:10E1D000FF00FF00FF00FF00FF00FF00FF00FF0047
:10E1E000FF00FF00FF00FF00FF00FF00FF00FF0037
:10E1F000FF00FF00FF00FF00FF00FF00FF00FF0027
:04000E00ACF9FFDF6B
:08000000FF3FFF3FFF3FFF3F00
:00000001FF
