:020000040000FA
:1000000080313C28FF3FFF3F803120007F08F30014
:10001000111C11282200E301E30A8031E020803125
:1000200011100B1D1A280B1122000630DC01DC0A0E
:1000300020009507911D1F2880313F20803121002D
:10004000111E28282000111E28289831A020803158
:100050002000911E3528230019088731CA278031D6
:1000600023001D1D35289D139D17270016191611F5
:1000700073082000FF000900880181310B299111CC
:10008000992822082400910008002400161BA528A6
:1000900022002308240091002200240B0800A00A5B
:1000A00008002400161BA5282200A503A51BA828CC
:1000B000A003260886000130870001082400910073
:1000C0002200A60A08002400161BA5289614080082
:1000D000220801382400910008002400161BA528DE
:1000E00024009615080027088600013087002400A8
:1000F0001108810022000530A70A203E8600FF304B
:10010000F000403F7007C03F803A7F3E031C8B28C1
:10011000240096128D282400961616160800A508AD
:100120000319A8280630A0007028210091118B1512
:10013000080022002008A00A8400093004020318E5
:10014000080098310435003E82002200A101A10A76
:100150002400083016152200A0000800AF01B001ED
:10016000B1012B082A0429040319D928B201B20AC3
:10017000AB1BBE28A935AA0DAB0DB728AF35B00D06
:10018000B10D2B082E02031DCB282A082D02031DBA
:10019000CB2829082C02031CD4282908AC022A08E1
:1001A000AD3B2B08AE3B2F14AB36AA0CA90CB20BFF
:1001B000BE282F08A9003008AA003108AB000800AB
:1001C0008C1221008C125108EE208C162100FF3079
:1001D0008C16D1012000970096000800F000F10174
:1001E000701CF52822008C16F72822008C1209308A
:1001F000F036F10A710203180800F028FF3FFF3FB4
:100200008131820702298A31DD2A8F31F62F903120
:100210000D288A31982A5130F601F701F80184003F
:1002200000308500163098317C208131A030840068
:1002300000308500443098317C20813120308400AA
:1002400001308500493098317C208131A030840014
:10025000013085004D3098317C2081312030840080
:1002600002308500343098317C208131A030840008
:1002700002308500283098317C2081312030840084
:1002800003308500403098317C2081310A30F900FC
:100290008930840098308500673086000030870000
:1002A000083098317620813101308400903085000B
:1002B000E4308600003087000C30983176208131A0
:1002C00082308400983085006930860001308700D4
:1002D000073098317620813123000130ED00FF3066
:1002E000EE000030840088308500543086000230F3
:1002F0008700123098317620813120007F29143018
:100300002400EA00E80123009D1324009512210037
:10031000991119169916191799170B278131210070
:100320008D1122008D11230030300D11D92581311E
:100330002100CE001B3097008D1122008D1124006A
:10034000EB01FA30EB0A6B02031CA129EB01FA3036
:10035000EB0A6B02031CA72922008D152400EB0178
:10036000FA30EB0A6B02031CB029EB01FA30EB0AFE
:100370006B02031CB6298A311F2281313326993141
:10038000E4218131952581315826813121008E105B
:100390008D120E1170268131FF3011109700F73049
:1003A00096002100111422005C0BD329DC01883156
:1003B000802081319231292281312000E108031D02
:1003C0005A2A96238131013A031D572A2400EA0A4A
:1003D0006A08323A031D302AEA018831122081313D
:1003E00068080319032AD630E8012000B100013063
:1003F000B200C330B300A230B4006E2281313108A4
:100400002200E5002B2A220063082000A000DE3035
:10041000A101A200A3011E26813121082400E700CA
:10042000200020082400E600D6302000B100013072
:10043000B200B030B300A230B4002400670820003E
:10044000B600240066082000B5006E228131310814
:100450002200E500E30123001D12210011165A2A93
:100460000C306A0203184F2AD6302000B100013048
:10047000B200B230B300A230B40024006A351E3E90
:10048000860002308700403F2000B500413FB600A3
:100490006E22813131082200E5002100111624006E
:1004A0006A080C3A031D5A2A23001D165A2A2300F3
:1004B0001D1E542A2000610B602A14302400EA001B
:1004C0006930F401F40A993180218131013A031D28
:1004D000D3292400690899238131D3293530C101FA
:1004E000C201C0002000B3268131C80803198C2B3B
:1004F0004808253A0319822A4808A12681310319A0
:10050000C20A722AC901CA01C7018C2AC715892AE1
:100510004715B30A0319B40A3308E62681312D3A88
:100520000319862A1D3A0319882A962AC71D992A73
:100530004711E026813110268131031CC72AC901E9
:10054000CA01E0268131BB00BC014A08A10049086C
:10055000A0000A30A200A3011E2681313B0820071B
:10056000BD003C08213DBE003D08D03EC900FF3023
:100570003E3DCA00B30A0319B40A3308E6268131A6
:1005800010268131031CC72AA12A4717D62AB32671
:100590008131003A03198C2B643A0319D62A0D3A9B
:1005A0000319D62A1C3A0319C52A722A471BE52AC1
:1005B0004008C0268131C41FE82A0330C704C3099C
:1005C000C409C30A0319C40AE82A4008C0268131B5
:1005D000C801C80A4835D2268131BB00013FBC00A2
:1005E0004402031DF52A3B084302031CFC2AC80AE7
:1005F0004808053A031DEA2A4A0849040319082B4A
:10060000470803390319082BFF30C907031CCA0325
:100610004808BB00BC01BB1BBC033C08803ABD00C2
:100620004A08803A3D02031D172B49083B02031874
:10063000232B20004808BB00BC01BB1BBC03C90224
:100640003C08CA3B262B2000C901CA01471D3F2B8D
:10065000470803390319312B2D30A12681310319A5
:10066000C20A4A0849040319542B3030A1268131AB
:100670000319C20AFF30C907031CCA03312B4A08F9
:100680004904031DC7194B2B2030A1268131C926EF
:100690008131031D442B470803390319542B2D3096
:1006A000A12681310319C20A4808BF00732B0A3002
:1006B000AD00AE013F35D2268131A600013FA70033
:1006C0004408A9004308A8007C2681312708B0000F
:1006D0002608AF00EB2681312D08303EC800A12648
:1006E00081310319C20ABF033F0F572BC71D722A5E
:1006F0004A08803AFF0080307F02031D812B0130C1
:100700004902031C722A20302000A1268131C9260B
:1007100081310319722A832B310886003208870041
:1007200081014208B2004108B100080021005D08C3
:1007300008002000CE00CF01D0012100D608031907
:10074000132C532D2100D401D40A080002302100BB
:100750003B02BB01031CBB0A0800063021003B0220
:100760000318B62B3B08031DBB0A08005D0BCA2B00
:10077000A0302000B1000230B2001E30B300A23021
:10078000B4006E2281313208D0003108CF00210040
:10079000DD018F2D0E1323009E162100DD01DD0AE1
:1007A0000800023021003A02BA01031CBA0A08000C
:1007B000063021003A020318E12B3A08031DBA0A59
:1007C00008009831D1282100BC01BC0A0800210092
:1007D0003C030319EF2B3C08023A031DF62B0230B1
:1007E000BC0008003C08033A0319FD2BBC010800BB
:1007F00021003C08023A031DF22B0330BC00080024
:1008000021003C08033A031DF62B0130D601D60A1D
:10081000903115208131A030B1000230B200043097
:10082000B300A230132D20004E08423A0319D12BF9
:10083000013A0319A22B073A0319A62B013A03190F
:10084000F82B0F3A0319E32B063A0319002C193A37
:100850000319E72B373A0319D82B063A0319AD2BA6
:10086000942D2100B62B2100A030D001D00A200009
:10087000B1000230B200B830B300A230132D210015
:10088000D70A20004E08743A031D482C2100D703D4
:10089000210057089A314E228131A030B100023038
:1008A000B2008E30B300A130B40021005708A32C51
:1008B0000A302200CB070318CC0A20004E08353A34
:1008C000031D672C0A302200CB020030CC3BAD2642
:1008D0008131E930B300A130B40022004C0820007F
:1008E000B60022004B08E32C05302100E107031875
:1008F000E20A20004E086F3A031D832C05302100C8
:10090000E1020030E23BAD268131B130B300A130CD
:10091000B400210062082000B60021006108E32C29
:100920002100E30AE30A20004E086B3A031D9B2CCA
:100930002100E303E303AD2681316B30B300A13026
:10094000B400210063082000B500B601142D023068
:100950002100B2070318B30A20004E086E3A031DA7
:10096000B62C02302100B2020030B33B8931D721CE
:100970008131A030B1000230B2001B30B300A13091
:10098000B400210033082000B60021003208E32C17
:1009900005302100B0070318B10A20004E08753A4F
:1009A000031DD72C05302100B0020030B13BAD262D
:1009B00081314630B300A130B4002100310820005D
:1009C000B600210030082000B500142D01302100B0
:1009D000EA066A0BF42CA0302000B1000230B2000D
:1009E0009830B300A230132DAD2681318B30B30087
:1009F000A230132D2100CD0A4D08033A031D1B2DF3
:100A0000CD011B2DAD2681314E30B300A230132D08
:100A1000AD268131CE30B300A130132DAD2681310A
:100A20007730B300A230B4006E2281313208D0009A
:100A30003108CF008F2D4D08003A0319022D013ADD
:100A40000319082D033A03190E2D8F2DA030B10084
:100A50000230B2006330B300A230B4006E228131A4
:100A6000DA268131E52581312000CD01A030B100A9
:100A70000230B200A430B300A230B4004D08B5007B
:100A8000B6014D08D9258131B700B8016E228131F8
:100A9000DA268131E525813120004030CD0A4D0232
:100AA00003180800362D20004E08263A03195D2C45
:100AB000653A0319A22B183A0319332C053A031986
:100AC000582C3C3A0319E12B013A0319FA2C073A46
:100AD0000319312C0C3A0319E62C013A0319C82CDE
:100AE000023A0319932C073A0319902C013A03197F
:100AF000A72C033A0319AC2C013A0319792C1F3A9D
:100B00000319742C023A0319262D063A0319412CB5
:100B1000013A0319CD2C0C3A03193F2C942D2000D7
:100B20004F08F400A030E52508003230D925813186
:100B30002000EE002100EB0020006E082100EC00F8
:100B4000560BC82D0030D9258131CD000230D92572
:100B50008131F5000130D9258131E2007508E100CD
:100B60000330D9258131E3000530D9258131F500E5
:100B70000430D9258131B3007508B2000730D9257A
:100B80008131F5000630D925B1007508B0000800A4
:100B90000230CD009030E1000130E200A630E300E9
:100BA0009030B2000130B3008A30B0000230B100A2
:100BB0000800F400403074020318FF347408203E2B
:100BC00086000330870001080800A00023001D12E2
:100BD00021000E1323009E167408FF3A03190D2EF0
:100BE000740803190D2E2000A101F40803190D2E1D
:100BF00021082007F5008600023087000108230045
:100C00009A002000111A072E23009D1B012E2000A0
:100C1000A10A74082102031CF82D23001D160800E8
:100C2000F5003A30F401750203181C2E30307502BD
:100C3000031C1C2EF401F40A740C0800A401A50185
:100C4000201C262E2208A4072308A53DA235A30DAB
:100C5000A136A00C21082004031D202E2508A10088
:100C60002408A000080020001812981298111815E6
:100C700011100B178B172100111022001711971557
:100C800020009E171E172200143098171813981270
:100C9000981518111810990020009E111E111E1091
:100CA0001F159F141F1418142200CF01D001080033
:100CB00023001E131E121E15210011128E17230071
:100CC0009D019F101D131D169D11210091162300DB
:100CD00044309D171F129F151F109B009C01080098
:100CE00022001430981599002000181798179913AE
:100CF0001913191299120800AB01AC012708260438
:100D000003199C2EAA01AA0AA71B892EA635A70D96
:100D1000832EAB35AC0D27082902031D912E260822
:100D20002802031C982E2608A8022708A93B2B148A
:100D3000A736A60CAA0B892E2C08A7002B08A60004
:100D40000800BB0031088600320887003B0881009C
:100D5000B10A0319B20AC10A0800A0302000B1008C
:100D60000230B20008003408BC003308BB00B30AEC
:100D70000319B40A84003C0885000008C800080074
:100D800086008701403FC300413FC400C00AC00A3B
:100D900008000319C20AFF30C907031CCA034A0826
:100DA00049040800113E8400A1300318013E85006B
:100DB000003F08003208D0003108CF00F400A03412
:100DC00033088400340885000008080084003408D3
:100DD0008500000808002E082D040319062FF501D0
:100DE000F50AAE1BF62EAD35AE0DF02E2E083002F4
:100DF000031DFC2E2D082F02031C022F2D08AF020D
:100E00002E08B03BAE36AD0CF50BF62E3008AE001A
:100E10002F08AD0008002000A001A00A200B080048
:100E2000A1012108203E86000330870021083827D1
:100E30008131810020004030A10A2102031C112FC2
:100E40000230A000A2012208203E86000330870065
:100E500022083827813101060319312F2000A00113
:100E6000A00A20004030A20A220203180E2F232FCE
:100E7000F4002300910015139513151413080800AE
:100E8000AF007908143A0319080079080D3A0319DC
:100E9000080079081E3A031D5E2F21005F08031920
:100EA000552FDF01DF0AB601B7012200D40A54082A
:100EB000033A031D6A2F0130DF066A2F2200CD019D
:100EC000CE0120002E082100DF00B601B70122006C
:100ED000D401D40A20002F08E4001E30F801F900E4
:100EE0001708F5001608F4008D311325873120000E
:100EF000B0013008283E8600013087008A278731FC
:100F00002C080F39103E81000330B00A300203185C
:100F10000800792F2200E408031D942FF401F40A3D
:100F2000F5018D3113258731230052082000A300DD
:100F3000230051082000A200230050082000A10037
:100F400023004F082000A0004130A700C630A600B3
:100F50004E30A5006D30A4008F31002739302007B6
:100F60002300CF0030302000213D2300D00000308E
:100F70002000223D2300D10000302000233D23002B
:100F8000D20052082000AD00230051082000AC0020
:100F9000AD130800F2002F08F42787310319080069
:100FA000230030082F02F000F101031CF103AF1BF6
:100FB000F103B01BF10A0F3A710403190800230072
:100FC0002F08803A713E0318AF012F08F4278731AC
:100FD0000319080023002F08A03E86000130870077
:100FE00072088100AF0A08003002F000F101031C12
:100FF000F103B01BF103AF1BF10A70037104080089
:10100000FF34FF34FF34FF3400340034FF34FF3446
:1010100000340034FF34003400340034FF34FF3433
:1010200064340034220044082400A1002200430854
:101030002400A0002200C301C40120005D08240098
:10104000A30020005C082400A20021006608200004
:101050005C022400A4002100670820005D3B2400FE
:10106000A50020006C082400A70020006B082400C5
:10107000A60021002D082400A90021002C0824002E
:10108000A8007D202000A000A10121002B08200045
:10109000A30021002A082000A20086311E268831E4
:1010A00021082400AB00200020082400AA00200012
:1010B0006A082400AD00200069082400AC0021006B
:1010C00035082400AF00210034082400AE002100C0
:1010D00069082400B100210068082400B000200045
:1010E0006D082400B200B301200068082400B50098
:1010F000200067082400B4000800220062080800ED
:101100002000E108031D99282200BD0A0319BE0A28
:101110003E08033AE83003193D06031D9928BD0136
:10112000BE012300CB0A0319CC0A0319CD0A031907
:10113000CE0A2000E501610BA3282100C608031D8B
:10114000A3282F30C6002100C208031DC601C60A0D
:101150004608303A031DB1289131F22188319B3184
:10116000022B4608323A031DAF288D311E258831E7
:1011700088317D208831013A031DCA280130993118
:10118000512188312300C70A0319C80A0319C90A63
:101190000319CA0A2000610BE628A03021004A0288
:1011A000031CCA0A2200BF0A0319C00A3F08083AF2
:1011B0004004031DE828BF01C0012300CB0A031926
:1011C000CC0A0319CD0A0319CE0AE8282100CA0166
:1011D0002100500BF0280030D00199315121883185
:1011E0002100690820006A02031DFA28210068080E
:1011F0002000690203180F292100C50A4508053A95
:10120000031D1129C50120006A082100E900200002
:1012100069082100E8008931D7218831112921008E
:10122000C50120006E0B882988317D208831003867
:10123000031D88292100530803192229A0304A02DE
:10124000031C88292200390820006902C3002200FB
:101250003A0820006A3BC4004308063E9F31D62767
:1012600088310D30031945020318882922003B08F4
:1012700020006902C30022003C0820006A3BC40031
:101280004308093E9F31D6278831133003194502A0
:10129000031888292100C80A20006908C3006A08C9
:1012A000C400C50143082300D307200044082300DD
:1012B000D43D200045082300D53D210048080C3AC4
:1012C000031DA5290C30C8012000A900AA01AB010B
:1012D000230053082000AC00230054082000AD0078
:1012E000230055082000AE008031AE2088312A0846
:1012F0002100E900200029082100E800D301D30AD9
:101300002300D301D401D5018931D7218831A52902
:101310002300D301D401D5012100C80120006A08AF
:101320002200BC00200069082200BB0069302100B7
:101330006902783003196802031CA52920006E0B8E
:10134000A5292C309F31F627883120006E08210016
:101350006B060319CA296C0820006E060319CC29F4
:101360006E082100EC00C901C90A2000610BCA29DE
:1013700021006C0BCA291B302000E50021002C3015
:10138000EB01EB0AC901C0012200E9000130EA00CB
:101390009F31F0279A31E52A21000230C90A49021B
:1013A000031CCA296C08EB00C9019A31DA2A210012
:1013B000ED01ED0A03228931103E2000A40017221E
:1013C000893100278931FA218931252789312D0872
:1013D0002100B50020002C082100B400032289312F
:1013E000063E2000A4001722893100278931FA2106
:1013F0008931252F2308B3002208B2002108B1004B
:101400002008B000080020002730AF01AE01AD0079
:101410001030AC00210068082000A00021006908FD
:101420002000A100A201A3012100320808002730FA
:101430002100333D2000A500A601A70108002100DE
:101440000930951720009B001C109C109C111C1249
:101450009C121C1391101C15911C2C2A25009E0116
:10146000931313139A131A132600131393139E1531
:101470001E159E121E129C010824893122001D1780
:101480001D1021008E142500FF309A161A169800A0
:101490009A151A1521008D162600EB2789310E1595
:1014A0002500EB278931063015159510151095127A
:1014B00095110B118B162000950024009512220027
:1014C0008E150E1621008E150E16240013301417DB
:1014D0009516951515119510151092001713971262
:1014E000210091112400971596110B108B110B17E9
:1014F0008B178A27893120000D19802A00304E244D
:1015000022008C1321008C170D1523000D152100CE
:101510000E1423008C1621008C160C1722000C11BF
:101520008C100C108C1521008C1523000D14080054
:10153000640020003B08860087010108013A031976
:10154000B92A043A0319B72A093A0319B72A013A02
:101550000319AE2A033A0319D42ADC2A1F30AF2319
:1015600003302000E3002100CF01CF0A08003A0831
:10157000FB2FE308031DB72A1430AF238931023053
:10158000200068027B3003196702031C080000304A
:10159000AF238931F22789312F2420003A088600B1
:1015A00003308701810008000030AF238931053006
:1015B0002000B50003302F2C08006400812B620B43
:1015C000E22A0800082489310030AF2B620BE92A97
:1015D00008000A3021004E02031808001430AF231F
:1015E00089312000610B0800122C3A08FB2F2100E2
:1015F000CE08031D012B6F082000AE00760887314E
:10160000402FF22789312F2C122489312100CE0856
:10161000031D102B2000AE01AE0A76088731402F43
:10162000F22789312F2C2100CE0120006308033AD4
:1016300003190800082489318427893104302000E7
:10164000E300610B252B1224893102304E248931AD
:1016500024000C3095128B11AF2320003A0886002D
:101660000730870181000800620B372B080021003A
:101670000030EF01EF0AAF2389319F2F6308023A50
:10168000031D08002100EF08031D080002304E0270
:1016900003180800CE0A082489310030AF238931AD
:1016A000F22789312F242100EF01EF0A0800630897
:1016B000023A031D08000030AF23893103302000B7
:1016C000B5000430522B6308023A031D0800E208FB
:1016D000031D0800082489310030AF23893105300B
:1016E0002000B500522B610B772B1224893108247E
:1016F00089310030AF23893105302000B500023038
:10170000522B20003B08860087010108013A03198B
:10171000F52A043A0319F52A0E3A0319132B113A44
:101720000319DF2A013A0319E62A073A0319732B32
:10173000013A0319572B033A03193E2B3E3A03197A
:10174000632B093A0319F72A033A0319042B6C3A5D
:101750000319342B163A0319AE2BAE2B08002000C8
:10176000AF0079080D3A0319042C2F0879060319E4
:10177000042C79081E3A0319C22B2F08F900210006
:10178000B601B70120002F08143A031DCB2B0430FB
:101790002100DA00DC0120002F080C3A031DDB2BAE
:1017A00097307802031CD82B2100DA01DA03DB2BF7
:1017B0002100DA01DA0A20002F081F3A031DE32B6B
:1017C00064302400DE0020002F08293A031D042C79
:1017D000C8302100DB0020001708F5001608F400CF
:1017E00013252000AE012E08283E86000130870018
:1017F00087318A2789312C080F39103E8100033048
:10180000AE0A2E02031CF32B2F082100EE00080065
:101810002200E20126009E111E1122000C1221005E
:101820000C120800E10123009D17250093151315E4
:101830009A151A1526009315131520009110911C66
:101840001F2C21008E108D120E1120006308043A07
:101850000319080002304E24893100304E2CB600A6
:1018600077080319372C04303502031C08000030B8
:10187000F801B20193316E235E302200EB0001309B
:10188000EC0003142000350DF70036082200E000BC
:1018900021000D30B601B701F90008002000A000BA
:1018A000812C2B30F4018D2489318B1D552C0E3069
:1018B000F4018D2489318B1D5B2C2A30F4018D2499
:1018C00089318B190800612C2B30F401F40A8D2426
:1018D00089318B1D692C2130F4018D2489318B1DB8
:1018E0006F2C2A30F401F40A8D2489318B190800F9
:1018F000762C0230F4002A308D2489318B190800AF
:101900007E2C2008003A0319512C013A0319642C4B
:10191000033A0319792C8C2C0800F5002100911949
:101920000800E52C22000230A501A50AA72C220000
:10193000A501A50A7408023A031DA12C2300E001A9
:10194000FC2CF408031DA62C0330A72C1B3023000D
:10195000E000FC2C04302200A50023000230E0014E
:10196000E100F408031DB72CE201E20AB92C0830AB
:10197000E2006930E300FC2C08302200A50055305D
:101980002300E0001030E101E200E300E400063053
:10199000E5001430E6006430E700FC2C2200A501CD
:1019A000A50A9E2C04302200A5001E302300E00072
:1019B0002830E101E200E301E30AFC2C2200A5014A
:1019C000A50A2300E001E00AFC2C7508093A031976
:1019D000DE2C073A0319922C013A0319CE2C123A45
:1019E0000319D22C3C3A0319BC2C0B3A0319972C3F
:1019F000013A0319AA2CFC2C2400951315138B1102
:101A00009611171797162000911121003A30911561
:101A10002200A2007508A300E030A600A401A001E6
:101A200024001614080074082300CF007508D000A5
:101A3000D101D2012200E401E40A08002000C20121
:101A4000782D2000ED08031D342D03305F02B730E0
:101A500003195E02031C342D620B312DEE01EE0AD8
:101A60009C2D0230EE009C2DEE01EE0A21006D0B44
:101A7000412D013020005F025E3003195E02031C1D
:101A80004D2D2100ED08031D602D003020005F0268
:101A9000323003195E020318602D4208FF3A031D1D
:101AA000592DFF30DE00DF000730ED002100D50AA0
:101AB0009C2DED0A6B2789312000C201C20A752DC9
:101AC000033020005F02B73003195E02031C722D41
:101AD000420B6B2D512DED036B278931FF30200018
:101AE000C200752D2100D5019C2D64278931642702
:101AF00070309131602189313408DF003308DE0015
:101B00006D08073A031D212D21006D0B8F2D01302B
:101B100020005F025E3003195E02031C9B2D210032
:101B2000ED08031D212D003020005F023230031923
:101B30005E020318212DEE01842720005F08A1001A
:101B40005E08A000FD30A200FF30A30086311E26F3
:101B500089312108EA002008E9006D35013E840042
:101B6000A1300318013E8500003FBA00013FBB00D1
:101B70003A08E9073B08EA3D2100530BC72D31081D
:101B80002000C100210030082000C000BF2EAE3070
:101B90002000C0000130C100BF2ED5278931C927E0
:101BA000893125278931B12789311C2E630820000E
:101BB000A200A301210063082000A000A10186313A
:101BC0001E2689312008BA002108BB00C2278931AE
:101BD0003A08AC003B08AD007530AE01AF01B30070
:101BE0001230B200B430B100B00125278931690844
:101BF000A4006A08A500A601A7016908A0006A0858
:101C0000A100A201A301002789312008BC002108FE
:101C1000BD002208BE002308BF001230BF36BE0C34
:101C2000BD0CBC0C890B0E2E3F08A3003E08A20081
:101C30003D08A1003C08A000DC278931002789313C
:101C4000DC27893100278931FA218931252789311B
:101C5000E3278931CB2E20004008AC004108C9277A
:101C6000893125278931B1278931DC27893100273E
:101C70008931DC27893100278931FA2189312527EB
:101C800089312D082100AF0020002C082100AE0072
:101C90003508AD003408AC00200069082100AC0212
:101CA00020006A082100AD3B2C082200C707210054
:101CB0002D082200C83DC81F602EC701C801842E10
:101CC00021002F082000BB0021002E082000BA00B0
:101CD000C22789312200480820003B02031D742ED0
:101CE0002200470820003A020318842E21002F0802
:101CF0002200C80021002E082200C700C836C70CE9
:101D0000C836C70CC836C70C21002D08AB002C08FC
:101D1000AA00AB37AA0C220048082000BB00220012
:101D200047082000BA00BA35BB0DBA35BB0DBA352D
:101D3000BB0D3A082100AA0720003B082100AB3D5B
:101D4000AB1FA52EAA01AB01B12E2B082F02031D3C
:101D5000AB2E2A082E020318B12E2F08AB002E0836
:101D6000AA00350834040319BC2E61303502A930AD
:101D700003193402031CCB2EAA01AB01CB2E210088
:101D80004D08003A0319CD2D013A0319D62D033A17
:101D900003192B2ECB2ED5278931C9278931252729
:101DA0008931B1278931DC27893100278931DC2746
:101DB000893100278931FA21893125278931E327A3
:101DC000893104302B02003003192A02031CEC2E47
:101DD000FF30AA000330AB002000620BF42EFF306E
:101DE0002100AA000330AB002100500BFA2ECC30AA
:101DF000AA00AB01EA08031D0800AA01AB01080014
:101E0000A801A901AA01AB01201C0E2F2408A807D4
:101E10002508A93D2608AA3D2708AB3DA435A50DF8
:101E2000A60DA70DA336A20CA10CA00C230822041A
:101E300021042004031D042F2B08A3002A08A2005C
:101E40002908A1002808A0000800B401B501B601C6
:101E5000B7012F082E042D042C0403195B2FB801A1
:101E6000B80AAF1B382FAC35AD0DAE0DAF0D302F0E
:101E7000B435B50DB60DB70D2F083302031D4A2F2B
:101E80002E083202031D4A2F2D083102031D4A2F4E
:101E90002C083002031C552F2C08B0022D08B13B32
:101EA0002E08B23B2F08B33B3414AF36AE0CAD0C4A
:101EB000AC0CB80B382F3708AF003608AE00350829
:101EC000AD003408AC000800F4014430F40A740298
:101ED00003180800652F20006D1C712F21000C11C4
:101EE000732F21000C152000ED1C792F21008C1080
:101EF0007B2F21008C1420006D1D812F21000C10E0
:101F0000080021000C14080021000C158C140C147E
:101F10008C15080023008C018D0121009E171E08DE
:101F20008F3920389E007C309D0420001113210041
:101F3000823011131D149D1022009700080020000C
:101F4000D108031D0034D208031D0034D308031D3B
:101F50000034F708031D003479081E3A031D0134CC
:101F600000346A08BB006908BA00BB36BA0CBB363D
:101F7000BA0CBB36BA0C3A08A0003B08A100A2017B
:101F8000A3010800BB36BA0CBB36BA0CBB36BA0C80
:101F90000800AD001E30AE01AF01B300B030B2009A
:101FA000A330B100D730B000080061082000AC00B9
:101FB00021006208200008006B08A4006C08A5003E
:101FC000A601A70108002D082100AB0020002C0865
:101FD0002100AA00080093161316910093151315FB
:101FE0002100080003302000B5000134F708031D6C
:101FF00008003A08FB2F86000530870181000800A1
:10200000FF3F01340034043400343034753401347B
:102010000134013401340A34013443219031EE009B
:102020006B209031FC21010008002000A100383015
:10203000A2002108F50022081A2190314030A20A9E
:1020400022020318080019280830A1002108853150
:10205000D9259031F50021081A2190312630A10AA6
:10206000210203180800262821004D082000AD0099
:102070000030D4209031210062082000AD000130F2
:10208000D4209031210061082000AD000230D4201E
:102090009031210063082000AD000330D42090313E
:1020A000210033082000AD000430D42090312100FD
:1020B00032082000AD000530D420903121003108D5
:1020C0002000AD000630D4209031210030082000DF
:1020D000AD000730D428E208031D080034209031F9
:1020E000210057082000AD002630D4200A30A60079
:1020F000A70122004C082000A90022004B08200064
:10210000A80086317C2690312608AD002730D420E7
:10211000903121004F082000AD003130D4209031A3
:1021200021004E082000AD003030D42090316E08E0
:10213000AD003230D42090317608AD003330D42059
:10214000903123004A082000A30023004908200002
:10215000A200230048082000A10023004708200017
:10216000A0002830E120903123004E082000A30079
:1021700023004D082000A20023004C082000A100ED
:1021800023004B082000A0002C30E120833196234F
:1021900090312000AD003430D42090312100560B16
:1021A000D3280A2190313229F500383075020318FE
:1021B00008007508203E8600033087002D08810046
:1021C0000800F400F50120307507A4007408240706
:1021D000A5008600033087002008A6002108A7007C
:1021E0002208A8002308A90075080907090709079C
:1021F000890AFF280310A90CA80CA70CA60CFF3E07
:10220000031DFA28260881000430F50A7502031818
:102210000800E3282000A10121088531D92590314B
:10222000F50021081A2190310830A10A2102031873
:1022300008000C29A00023009100750893001513D5
:10224000951315158B138B1B2329553023009600EE
:10225000AA3096009514151195182C2920001212F9
:102260008B17080028302000A10021088531D925CE
:102270009031F50021081A2190313530A10A210250
:10228000031808003529F22190310C118C100C1024
:10229000F5011430F50A7502031C492970306021DC
:1022A0003408DF003308DE008F318427903101309D
:1022B00020005F02F43003195E0203180134003479
:1022C0002000B700A32921001D11682921001D1538
:1022D0009D11702921001D116F2921001D159D15CB
:1022E0001D12802921001D11772921001D159D1126
:1022F0007F2921001D117E2921001D159D151D1608
:102300009D12962921001D11872921001D159D115F
:102310008F2921001D118E2921001D159D151D12CB
:10232000952921001D119D111D169D161D13D229E1
:1023300021001D159D159F2921001D159D111D169C
:102340009D161D17D2293708013A03196329033A4C
:1023500003196629063A03196A29033A03199829C9
:102360000F3A03196D29013A03199C29193A0319E7
:102370007229303A03197529603A031979292C3AE0
:1023800003198229013A03198529033A0319892976
:10239000013A03198C291F3A03199129F03A0319BC
:1023A0007C29D2298F31642790312000111321001C
:1023B0009D142000111FD92921001B082000B800FE
:1023C000B90121001C082000B500B601B600B50116
:1023D0003508B8073608B93D11133908B400380874
:1023E000B300080026009E111E1122000C122100CD
:1023F0000C128C118F316B2F8B132600FF309E1126
:102400001E1121008C008D008E0023008C018D0197
:1024100021001D1020009E13220097132000181089
:102420002500931113119A111A11260093111311FB
:102430000B128B108B120B112000990127009401B5
:102440009501210091110B1791160B108B1564004B
:1024500008002100B60A0319B70A7908003A0319DF
:10246000722A0C3A03194B2B013A03194A2A193ADA
:102470000319D42A013A0319112B0B3A03197F2AA5
:10248000013A03197A2A373A03191C2B013A031926
:102490001D2BEA2A370822006C06031D532A21004F
:1024A000360822006B06031D0800FA30EB00EC0131
:1024B0002100B601B701F70B602A6E08F900080089
:1024C000770B672A5E302200EB000130EC007718B2
:1024D0006E2A2000B201220060086E2B200000301E
:1024E000B2016E2B7808031DF80302302000B20001
:1024F00000306E2B02302000B20003306E2B220021
:10250000CD0A0319CE0A0F304E02013003194D02D5
:10251000031C922A7830CD000530CE01CD35CE0D8A
:10252000890B8E2A21005F0803199A2A5F08023A54
:10253000031DB12A20000030B201B20A6E2392318D
:102540002100DE0137032C3003193606031D080075
:10255000B601B701DF0A5F08033A031D0800DF0177
:102560005D2A5F0B08005E08FF3A031DDE0A2200A9
:102570004E082000B30022004D082000B200C42302
:10258000923121003703C23003193606031D0800BB
:102590000230B601B701DF00DF016E08F90020004C
:1025A000D101D201D301080090307802031CEB2A3C
:1025B000DC08031DEB2AFD30DA009030F800DC0166
:1025C000DC0A36080339031DE72A5A08F807AE2645
:1025D00092316E230800043078020318E12A5C0B64
:1025E000E12AF901E12AFB30DA004B3078020318C6
:1025F000E12ADA01E12A03300B2B65086404031D8C
:102600000A2B2830DA01DA0378020318E12A0230B3
:10261000DA00E12A0430DA00C93078020318F92A16
:10262000E12A5808003A0319FD2A013A0319F32A4E
:10263000033A0319FB2AE12A012B22005330DD0A59
:102640005D02031C362B2000E208031D362B2100FF
:102650005B0803192C2BDB0329305B02031C332B93
:102660002200DD01362B47302200DD0078082100F2
:102670005B0203183E2BDA01F803442B5B08780257
:102680000318442BDA01DA0A5A08F80722005F0B14
:102690004A2BB32EB22C36080739031D080096309A
:1026A0005902031C582BDA01DA035208E0005D2BB3
:1026B000D908031D5D2BDA01DA0A5A08D9073C3024
:1026C00060020318692B600859020318692B60081F
:1026D0006A2B5908F800AE2692316E2B2000B30009
:1026E000B308031D7E2BB4013408543E860002302B
:1026F00087007808A9269231031C742BB208031DA9
:10270000892BB4015A269231A92692310318B92B8C
:10271000822B2200D30A2000320822005302031C1D
:10272000B92BD3012000B4015A26923101020318BB
:102730009E2B3408513E8600810AB42B33083307A0
:102740003307543E3407F500860002308700340812
:10275000513E84008501000801020318B42B34089F
:10276000513E8600870181030330B40A3402031C02
:10277000942B20005108B025923120005208E22508
:10278000923120005308142E3308B5003208B400EB
:102790000530B536B40C890BC92B3408BC002200B7
:1027A000AD0A0319AE0A28082000A000462686318B
:1027B0001E26923121082300B900BA0122002908FF
:1027C0002000A000462686311E26923121082300D3
:1027D000BB00BC0122002A082000A000462686314A
:1027E0001E26923121082300BD00BE013A08C00018
:1027F0003908BF002000BE013E35B93E86000130D9
:1028000087003E35BB3E840001308500003FB400A8
:10281000013FB500B536B40C340869269231010782
:1028200069269231BB007D269231B40086000230C9
:102830008700803001023E08031C3E2C383E860093
:1028400087017D269231B4008400023085003C0867
:10285000000281003E08383E86003B08A000A1012E
:1028600098269231B4007D269231B5008400023062
:1028700085000008B600340836025D2C383E86001C
:1028800087017D269231B400840002308500000863
:102890003C0781007D269231B4008600023087001B
:1028A0003B08A000A1017D269231B50084000008FC
:1028B000B6009826B70036083702A200A301031C11
:1028C000A30386311E26923121080107BD00210095
:1028D0005E08FF3A0319862C20003E08513E860010
:1028E00087013D0801023E0803187A2C513E8600FC
:1028F000810AA32C513E8600870101083D0203187E
:10290000A32C3E08513E86008103A32C20003E08E4
:10291000513E860087013E08513E84008501000833
:10292000B400B5013D089E2686311E26923134083A
:102930002007B6003508213DB700B736B60CB736CC
:10294000B60C360881000330BE0A3E02031CFC2B85
:102950005108B025923120005208E2259231200022
:102960005308142E20005708803AFF0080307F0261
:10297000031DBC2C153056020318FA2C20005708F2
:10298000803AFF007F307F02031DC82CEC305602D6
:10299000031CFA2C20005908803AFF0080307F0287
:1029A000031DD42C153058020318FA2C20005908A6
:1029B000803AFF007F307F02031DE02CEC3058028C
:1029C000031CFA2C20005B08803AFF0080307F0255
:1029D000031DEC2C15305A020318FA2C20005B085A
:1029E000803AFF007F307F02031DF82CEC305A0242
:1029F0000318022DC730210039020318092DB90A26
:102A0000B90A092D023021003902031C092DB9032E
:102A1000B90328303902031C0F2D2200DD012100EB
:102A2000390878020318162DB801192D39087802D3
:102A3000B8002200AB0A0319AC0A28082000A00045
:102A4000502686311E26923121082300B200200034
:102A500020082300B1000F30B10EB20EB1053208CC
:102A6000F039B1040F30B205220029082000A0007F
:102A7000502686311E26923171269231B3002000F5
:102A800033082300B40022002A082000A0005026AA
:102A900086311E26923171269231B500200033080E
:102AA0002300B6003208B8003108B700F5017535CB
:102AB000B13E8600013087007535B33E8400013099
:102AC0008500003F2000B200013FB300B336B20CD6
:102AD000320869269231010769262200D1002000C0
:102AE000A000A1012100380878022000A200A30163
:102AF000031CA30386311E269231210821003807CA
:102B00002200D2007508513E860087017508513EAB
:102B10008400850100082000B200B30122005208A1
:102B200020009E2686311E26923132082007B400EE
:102B30003308213DB500B536B40CB536B40C3408B5
:102B400081000330F50A7502031C572D5108B0258A
:102B5000923120005208E225923120005308142EB1
:102B6000AF00FE30B0000330B1006430A600A70112
:102B70002F08A000A1012F08A200A30186311E2664
:102B80009231A42686317C2692312608B00227088D
:102B9000B13B832692312D1CD02D25009316D22DCA
:102BA000250093122000301CD82D25001316DA2D95
:102BB0002500131220008326AE36AD0C2D0825000B
:102BC00091000800AF00FC30B0000330B100643069
:102BD000A600A7012F08A000A1012F08A200A301B1
:102BE00086311E269231A42686317C269231260813
:102BF000B0022708B13B8A2692312D1C022E2600F6
:102C00009316042E260093122000301C0A2E260054
:102C100013160C2E2600131220008A26AE36AD0C99
:102C20002D08260091000800AF00FC30B0000330F2
:102C3000B1006430A600A7012F08A000A1012F0851
:102C4000A200A30186311E269231A42686317C265D
:102C500092312608B0022708B13B912692312D1CF3
:102C6000342E25009A16362E25009A122000301C8C
:102C70003C2E25001A163E2E25001A122000912601
:102C8000AE36AD0C2D08250098000800A1012200E9
:102C90002E082000A30022002D082000A20008001A
:102CA000A10122002C082000A30022002B082000F4
:102CB000A20008003408513E86008701330833071C
:102CC0003307543E3407F5008400023085000008C5
:102CD0000800013E8400A0300318013E8500000872
:102CE00008002008B2002108B3000430B336B20C4B
:102CF000890B762E320823000800640864076407F5
:102D0000543E3E0708003108AE003008AD00AE3634
:102D1000AD0C08003108AE003008AD00AE36AD0C89
:102D200008003108AE003008AD00AE36AD0C08002A
:102D30003E08383E8400850100080800A0000330EA
:102D4000A101A200A30108002108A9002008A800F1
:102D5000080081000330B40A34020800200000306B
:102D6000B201B20A08002000BE01BF015708B3003B
:102D70005608C8279231BA003308BB005908B3007F
:102D80005808C8279231BC003308BD005B08B30067
:102D90005A08C8279231B8003308B900C10141353B
:102DA000383E860087014135C13E840001308500F0
:102DB000003FA000013FA1000730A200A30186311F
:102DC0001E2692312008043EB2000030213DE1274A
:102DD0009231403F3207B400413F333DB5004135A9
:102DE000C13E8600013087003408C03F3508C13F2E
:102DF0004135C13E86000130403FB200413FE127EE
:102E000092314135383E86008701403FB400413F52
:102E1000B50032083402B6003308353BB7004135FF
:102E2000A03E86003608810741313708813D7F3159
:102E30004135C0279231803AFF0080307F02031D68
:102E4000232F01303202031C5F2F20004135C027A1
:102E5000923100303302053003193202031C352F42
:102E60004135A03E86000430372FFC279231870180
:102E7000810241310030813B7F314135C0279231A1
:102E80003208BE073308BF3DF42792317808D427B3
:102E9000923103184D2FC001A12F4135C027923127
:102EA000003033020B3003193202031C5D2F413511
:102EB000A03E8600010878029F2F7808A02F2000EE
:102EC0004135A03E860087014131811F5D2F41358C
:102ED000C0279231EC279231053003193202031CCE
:102EE000762F4135A03E86000430782FFC279231A2
:102EF0008701810741310318810A4135C02792318A
:102F00003208BE023308BF3BF4279231B209B3093D
:102F1000B20A0319B30A7808D4279231031C4B2F45
:102F20004135C0279231EC2792310B300319320220
:102F3000031C5D2F4135A03E8600010878070A3E3C
:102F4000C0004108513E86008701400881000330DF
:102F5000C10A4102031CCF2E00303F022930031961
:102F60003E02031CB52F2200DD0120005108B025D0
:102F7000923120005208E225923120005308142E8D
:102F8000A03E86008701403FB200413FB3000800E9
:102F9000B200B3000830B201FF00330DB30CB20C25
:102FA000FF0BCD2F320808000A3EB4000030031892
:102FB0000130B50033083502031D08003208340221
:102FC0000800B300330DB30CB20C330DB30CB20CCC
:102FD000330DB30CB20C0800B209B309B20A0319DD
:102FE000B30A0030330208004135A03E8600403F5E
:102FF000B200413FB30008004135A03E86000134D5
:103000008031412880314528803151288031632822
:103010008031682880316D288031732880318F2875
:1030200080319528FF3FFF3FFF3FFF3FFF3FFF3FBE
:10303000FF3FFF3FFF3FFF3FFF3FFF3FFF3FFF3FA0
:10304000FF3FFF3FFF3FFF3FFF3FFF3FFF3FFF3F90
:10305000FF3FFF3FFF3FFF3FFF3FFF3FFF3FFF3F80
:10306000FF3FFF3FFF3FFF3FFF3FFF3FFF3FFF3F70
:10307000FF3FFF3FFF3FFF3FFF3FFF3FFF3FFF3F60
:10308000FF3FFF3FFF3FFF3FFF3FFF3FFF3FFF3F50
:10309000FF3FFF3FFF3FFF3FFF3FFF3FFF3FFF3F40
:1030A000FF3FFF3FFF3FFF3FFF3FFF3FFF3FFF3F30
:1030B000FF3FFF3FFF3FFF3FFF3FFF3FFF3FFF3F20
:1030C000FF3FFF3FFF3FFF3FFF3FFF3FFF3FFF3F10
:1030D000FF3FFF3FFF3FFF3FFF3FFF3FFF3FFF3F00
:1030E00022005008F5004F08F4000800FE0012000E
:1030F0001E00FE0B77280034640080010131890B2B
:103100007D2800342C3401349634003403340034E8
:1031100001346434003430347534DC340134073421
:103120000134F51F080074092000A0007509A100F2
:10313000A00A0319A10A2008F4002108F5000800DC
:1031400021003D08D63E860001308700010823009B
:103150009A002100BD0A3D0822006506031D0800F3
:103160002100BD0111120800A601A701A801201C21
:10317000BF282308A6072408A73D2508A83DA33596
:10318000A40DA50DA236A10CA00C22082104200438
:10319000031DB7282608A0002708A1002808A200C0
:1031A00008008631AD2698313630B300A230B40025
:1031B0000730B501B50AB601B7000F30B801B90044
:1031C000BA0182316E2298313208CC003108CB002E
:1031D0004C08803AFF0080307F02031DF128013047
:1031E0004B02031C080020004B08F400A03085317E
:1031F000E52DF400240095131513200091112100F2
:1032000091158B1124003A3096111717971622004A
:10321000A2007408A30012290430A5001A29A501F0
:10322000A50A1A297408003A03190C29223A03192D
:103230000F291A29E830A700A401A40AA00124003C
:10324000161408002000A100A001803A1B3E031CB8
:103250002F297408860001308700011C38292108B5
:10326000803AE43E4C21993103183F29011C3D2945
:103270007408860001308700810A4C21993104309E
:103280000102031C4A29A001A00A7408860001302B
:10329000870081012008080074088600013087003B
:1032A00008002000A2002200E2002100ED0126001B
:1032B0009E151E1521000C122B08F5002A08F4009B
:1032C000612978219931201C682926009E166A29D7
:1032D00026009E12741C6F2926001E1671292600D6
:1032E0001E127821A136A00C200826009C000800A0
:1032F00075082000A1007408A000A136A00C0800E9
:103300002000A300A601A50123002F082000A4008F
:10331000D5219931031C9129230030082000240273
:103320009A29D521993103189B29230030082000C0
:1033300024020F3EA50023003008803A713E031C92
:10334000A729200025080319A7292300B001200080
:1033500025087402A601031CB729250826020318B4
:10336000B5292608C4219931AD292508C229F408B8
:103370000319C1292608C421993174082602031CA7
:10338000BA297408A20008002307A00086000230B2
:10339000870023003008A03E84000130850000082B
:1033A0008100B00A2000A60A08002300300820008F
:1033B000A000A101A01BA1032108803A803C031DAD
:1033C000080020082402080020003330BC01BC0A99
:1033D0008531D9259931F6003830BD003D08853159
:1033E000D9259931013A031DBC013F30BD0A3D0288
:1033F000031CEE293C082100D60031308531D92547
:103400009931CF0028306F22993123082300CA0058
:10341000200022082300C900200021082300C80042
:10342000200020082300C7002100D608031D222AFF
:103430000830D7004E229931F4302200CB00013001
:10344000CC00452A26308531D9259931D7004E2226
:1034500027308531D9259931A0000A30A101A20079
:10346000A30186311E26993121082200CC002000BC
:1034700020082200CB0034308531D9259931013A1A
:10348000031D452A0130AC2299316630B6226630E0
:10349000BA00BB0166088131002108002000AF009E
:1034A0000A30A600A7012F08AD000530AE01AD35EA
:1034B000AE0D890B572A2D08A8002E08A9008631C9
:1034C0007C262708B1002608B0003108A10030088A
:1034D000A0003108A3003008A20086311E2EF4009F
:1034E000233E86000330870001082000A700A601C4
:1034F000A501A4017408223E86000108AA00A901C2
:10350000A8017408213E86007408203E8400033020
:1035100085000008AB000108AC00AD012B08A8072E
:103520002C08A93D2D08AA3D2808AE002908AF00A7
:103530002A08B000B1012E08A4072F08A53D3008C5
:10354000A63D3108A73D2708A3002608A2002508AC
:10355000A1002408A0000800F40074082100DD0088
:103560005D0B08000E1323009E1608002000A0002B
:103570000130F4002008BC2AF50086008701740899
:10358000810008007830E8006930E9001A30D30182
:10359000B401B5012000E5004030F6279A31E52A54
:1035A0001B30D72A7830E8006930E9001C30200051
:1035B000E500E52A6C08003A0319C22A013A03190A
:1035C000D02A033A0319D22AE52A200065081C3ABA
:1035D0000319F82A65081A3A0319F82A033021005A
:1035E0005502031CF82A20302000E5002100D501F7
:1035F00020006A082200BA00200069082200B900F1
:103600002100C601C027813100219A312000E50147
:10361000983170209A3175082000D5007408D400C4
:103620002100C608031DBA2C0530400203181D2BCB
:10363000C00A20005508C7279A3121006508640494
:10364000031D432B22006D0820005407C3002200F5
:103650006E082000553DC4005D02031D312B430858
:103660005C020318432B2200E4279A3103192F022E
:10367000031C6E2B2100E401E40AE501220008305E
:10368000CF279A316E2B210064036504031D6B2B39
:10369000660820005407DD279A315D084402031DA7
:1036A000532B5C08430203186B2B6E0B6B2B220011
:1036B000E4279A3103192F02031C6E2B2100E40129
:1036C000E50122000730CF279A31610B6E2B0930BC
:1036D0002100BE006E2B2200AF01B0012100640367
:1036E0006504031D0A2C0030220032020330031946
:1036F0003102031C7F2B0330B1020030B23BE90AD8
:103700000319EA0A01306A02403003196902031CF6
:10371000902B4030E9000130EA0046302000E500FF
:1037200020005D085502031D972B5C085402031806
:10373000AA2B2100BF0A2200D50121003F080A3A26
:10374000031DDB2B01302000DC020030DD3B2100BB
:10375000BF01DB2B55085D02031DB02B54085C0232
:103760000318DD2B5C08053EC30000305D3DC4003E
:1037700055084402031DBE2B540843020318CC2BEA
:103780002200D60A5608C83A031DDD2BD6012000B8
:103790005508C7279A31DD2B2200D50A2100BF0129
:1037A00022005508053A031DDB2B2000DC0A031913
:1037B000DD0A2200D5012200D60121006608200082
:1037C0005407DD279A315C08043EC50000305D3D9A
:1037D000C60044084602031DEF2B430845020318A8
:1037E0009D2C02302100E6020030E73B67020430E6
:1037F000031966020318FF2B0430E600E70167088F
:103800002200EE00210066082200ED00FF30ED07E7
:10381000EE3D9D2C2200B10A0319B20A2100BF011E
:103820002200D50120006E0B182C2200E901EA01CC
:10383000003022003202783003193102031C232C9D
:103840000A302000E500003022003202F030031977
:103850003102031C412C2100E401E40AE5012000AF
:103860005408FD3EC300FF30553DC4005D084402CE
:10387000031D3C2C5C0843020318412C5508C72744
:103880009A3120005D085502031D482C5C08540243
:103890000318702C22004A082000A10022004908C9
:1038A0002000A0000F30A200A30186311E269A310D
:1038B00054082002C3005508213BC4005C0843079C
:1038C000C5005D08443DC6000430C636C50C890BF2
:1038D000652C45082200C900200046082200CA00C5
:1038E00022004A082000C400220049082000C3002A
:1038F000C436C30CC436C30CC436C30C44082200FF
:103900006E02031D872C2000430822006D0203185D
:103910009D2C4A08EE004908ED00EE36ED0CEE361F
:10392000ED0CEE36ED0C6E082100E70022006D086C
:103930002100E600E60A0319E70A053022005902D1
:103940000318BA2C003020005502643003195402C9
:103950000318B72C22000230D80A5802031CBA2CD4
:1039600009302000E50005302200D900BA2C2200E1
:10397000D801D90AC027813100219A312000E50100
:1039800021000A30BE0A3E02031C4E2D3C30BE010F
:103990002000E5000730913160219A313408E800B9
:1039A0003308E700A9006808AA006C30AB01913128
:1039B00060219A313308A0003408A1005530A201DB
:1039C000A3000D30A4000030A5019831B4209A3135
:1039D0002008AC002108AD002208AE008031AE20E6
:1039E0009A312A082200C600200029082200C500BA
:1039F00088317D209A310038031D062D200068088B
:103A0000EC006708EB002100CC01182D20006808AD
:103A10006C02031D0D2D67086B020318032D210096
:103A20000230CC0A4C02031C182DCC01F0279A312D
:103A30000F3022004602A13003194502031C4E2D0F
:103A40002100420B4E2D200067082B3C2100D200A4
:103A50004F0B352D02302000680206300319670233
:103A60000318352D0D30FB279A3120000E1C4C2DEC
:103A700021003230C10A4102031C4E2D02302000C9
:103A800068020630031967020318482D0D30492DCE
:103A90000E30FB279A314E2D2100C101C027813104
:103AA00000219A3120000F30E50122004602A130AA
:103AB00003194502031C6B2D2100C301C208031D1D
:103AC0007B2D0330F6000B302000E50021008C1721
:103AD000C201C20A7B2D2100420803197B2DC30AB3
:103AE0004308643A031D7B2D0330C2000C302000D4
:103AF000E5002100C301C027813100219A31200057
:103B0000E501E5012200210B8E2DD708031D8E2D26
:103B10002C302000E5002200D701D70A20005708EA
:103B20002200B400200056082200B30020005908EB
:103B30002200B600200058082200B50020005B08D3
:103B40002200B80020005A082200B70023006908AC
:103B5000B2279A31D6004408D70023006A08B2275A
:103B60009A31D8004408D90023006B08B2279A3153
:103B7000DA004408DB000D1ECD2DE1088B11031D7A
:103B8000C62D00309831F9209A31CD2D2230983150
:103B9000F9209A312A302000E50020005708A100C2
:103BA0005608A0005708A3005608A20086311E261A
:103BB0009A315908A1005808A0005908A3005808D4
:103BC000A20086311E269A315B08A1005A08A00087
:103BD0005B08A3005A08A20086311E269A315708B6
:103BE000F5005608F40022003308F4023408F53BCF
:103BF000983191209A3174082000C3007508C400E0
:103C00005908F5005808F40022003508F402360877
:103C1000F53B983191209A31740820004307C50084
:103C20007508443DC6005B08F5005A08F400220000
:103C30003708F4023808F53B983191209A3174081E
:103C4000200045072100A60075082000463D210000
:103C5000A700003027020A30031926020318332E6A
:103C6000A601A701372E0A30A6020030A73B22008A
:103C700044084304031D442E210027082200C400E9
:103C8000210026082200C3000030210027028030D6
:103C900003192602031C4F2E7F30A600A701270818
:103CA000260403195D2E51087F39031D5D2E29302E
:103CB0002000E50021002608D104C0278131002121
:103CC0009A312000E5012100540B692E05302000B7
:103CD000E500C027813100219A312000E50162030F
:103CE0000319DA2E21004208031DDA2E02302000CB
:103CF0006802BB300319670203188B2E023068027A
:103D00007C3003196702031C952E88317D209A317F
:103D10000038031D952E2100CA30C40A4402031C3A
:103D2000972E1E302000E500972E2100C4010030A0
:103D300022006A02283003196902031CDA2E0230BD
:103D4000200068027C3003196702031CB32E210097
:103D5000CA30C70A4702031CDA2E1E302000E500D5
:103D6000F601F60AD82E02306802373003196702CE
:103D70000230031CC62E7602031CC52E2100CA3059
:103D8000C70A47020318B02EDA2E02306802283024
:103D900003196702031CD82E03307602031CD82EA9
:103DA0002100CA30C70A4702031CDA2E0230F6008F
:103DB0002100C701C027813100219A312000E5018F
:103DC000620BAE2F2100C608031DAE2FA80A0319EF
:103DD000A90A00302902643003192802031C2F2F7E
:103DE0004B08033A03192F2F0A3020006002031CEE
:103DF000002F043022005B020318002F5A30012FDD
:103E00005B302000E500C701EA279A31403FC3003C
:103E1000413FC400AD004735083E9031D4209A316F
:103E2000EA270108AD004735093E9031D4209A3188
:103E300047084A3E8600023087000108AD00470867
:103E40001C3E9031D4209A310A30C70A4702031C25
:103E5000042F903124209A3103302100CB0001300F
:103E600029022C3003192802031CA22F4B08033A05
:103E7000031DA22F2000E201A22F28032904031D05
:103E8000452F07302000E500AE2F2808143A2904FA
:103E900003194E2F2000EE08031DAE2F083020001E
:103EA000E500562F2000EE08031DAE2F0230210042
:103EB000CB00AE2F20006E0B962F2200DA0A5A0894
:103EC000023A031DAE2FDA0121000A30CB01CB0AE2
:103ED000200060020318AE2F6035363E86000230A7
:103EE00087006908C03F6A08C13F60084A3E8600F3
:103EF0006D0881006035363E86000230403FC300C9
:103F0000413FC40033304402F43003194302031824
:103F1000932F073060020318912F04302200DB003A
:103F2000932F2200DB0A2000E00AAE2F6E08023A2F
:103F3000031D9F2F64302100A800A901AE2F22008D
:103F4000DA01AE2F21004B08003A03193D2F013A48
:103F50000319522F033A03195A2FAE2FC02781316C
:103F6000002108002000C300C401C4000830C301C0
:103F7000FF00440DC40CC30CFF0BB92F430808000D
:103F800066302000BA006530BB0066080800DD001E
:103F90005408DC00FD30DC07FF30DD3D0800AF01D8
:103FA000B001C901CA012000E5000800C5000030C9
:103FB000443DC600003046020800C30021006708E7
:103FC0002000553DC4000800AF0A0319B00A0030B4
:103FD000300202344735363E860002308700080042
:103FE00020006808EC006708EB0008002200E900E8
:103FF0000130EA000800E50002302100C20008009C
:10400000003400340034003401340134013402340B
:1040100002340334043405340534063407340934D7
:104020000A340B340C340E340F341134123414347B
:104030001534173419341B341D341F342134233400
:10404000253428342A342C342F3431343434363463
:1040500039343B343E3441344334463449344C34AF
:104060004F345234553458345A345D3461346434E6
:1040700067346A346D3470347334763479347C3414
:1040800080348334863489348C348F34923495343C
:1040900098349B349E34A234A534A734AA34AD346A
:1040A000B034B334B634B934BC34BE34C134C4349F
:1040B000C634C934CB34CE34D034D334D534D734E9
:1040C000DA34DC34DE34E034E234E434E634E83448
:1040D000EA34EB34ED34EE34F034F134F334F434C8
:1040E000F534F634F834F934FA34FA34FB34FC3469
:1040F000FD34FD34FE34FE34FE34FF34FF34FF342F
:10410000FF34FF34FF34FF34FE34FE34FE34FD341C
:10411000FD34FC34FB34FA34FA34F934F834F63430
:10412000F534F434F334F134F034EE34ED34EB346C
:10413000EA34E834E634E434E234E034DE34DC34C7
:10414000DA34D734D534D334D034CE34CB34C93444
:10415000C634C434C134BE34BC34B934B634B334D8
:10416000B034AD34AA34A734A534A2349E349B3481
:104170009834953492348F348C3489348634833433
:1041800080347C3479347634733470346D346A34EA
:104190006734643461345D345A345834553452349D
:1041A0004F344C3449344634433441343E343B3448
:1041B00039343634343431342F342C342A342834DE
:1041C0002534233421341F341D341B34193417345F
:1041D00015341434123411340F340E340C340B34BF
:1041E0000A340934073406340534053404340334FE
:1041F0000234023401340134013400340034003418
:10420000003448343F34C934443445344A34C53426
:104210004F3455345534D5345A3451346034D23453
:104220006534013400340A34003464340034E83432
:10423000033410342734543465346D3470342034EE
:1042400043346F346E34743472346F346C342034CD
:10425000533465347434203450346F3469346E34DC
:10426000743420345B3470346534723463346534B0
:104270006E3474342F343134303430345D343A3465
:104280002034253475340D340A3400345434653404
:104290006D347034203443346F346E34743472347B
:1042A0006F346C3420344D346134783420345034DD
:1042B0006F3477346534723420345B3457342F34A0
:1042C0003134303430345D343A342034253475346C
:1042D0000D340A34003443346F346E347334743420
:1042E00061346E347434203452344D3453342034B9
:1042F000433475347234723465346E34743420341B
:104300005B3441342F343134303430345D343A341A
:104310002034253475340D340A3400345434613477
:10432000703420344134633463342034433468348B
:1043300061346E34673465342034543468347234F4
:1043400065347334683420345B3447342F3431346B
:1043500030345D343A342034253475340D340A3425
:10436000003443346F346E347334743461346E34D7
:104370007434203450346F347734653472342034DC
:104380005B3457342F343134303430345D343A3484
:104390002034253475340D340A34003443346F34FA
:1043A0006E34743472346F346C3420344C34613471
:1043B00077343A34203452344D3453342034433437
:1043C00055345234523445344E3454340D340A3456
:1043D000003454346134703420344D3461347834D2
:1043E0002034533470346134633469346E34673448
:1043F00020345B346D3473345D343A3420342534E6
:1044000075340D340A340034453445345034523454
:104410004F344D34203463346F346E346634693431
:1044200067347334203475346E346C346F346334D1
:104430006B34653464340D340A34003450346534DC
:10444000723466346F3472346D3461346E34633474
:1044500065342034443461347434613420344F344E
:104460006634663420340D340A3400340D340A3492
:104470000D340A344A34753475346C34203476344F
:10448000653472342034253464342E342534753444
:104490002E34253475340D340A34003443346F34EB
:1044A0006E34743472346F346C3420344C34613470
:1044B00077343A34203450344F34573445345234FE
:1044C0000D340A34003445344534503452344F34BA
:1044D0004D342034523441344D34203464347534F6
:1044E0006D3470343A3420340D340A34003443349B
:1044F0006F346E34743472346F346C3420344C3412
:10450000613477343A342034543445344D345034A3
:104510000D340A340034483445344134543445347D
:10452000523420344F34463446340D340A34003487
:1045300048344534413454344534523420344F34B3
:104540004E340D340A34003425342D34323464347E
:10455000203425342D34333464340D340A3400349B
:104560000D340A3425343034353464343B3400346B
:1045700066346C34693463346B3400340D340A347B
:1045800066343B3400340D340A3467343B34003431
:10459000FF3FFF3FFF3FFF3FFF3FFF3FFF3FFF3F2B
:1045A000FF3FFF3FFF3FFF3FFF3FFF3FFF3FFF3F1B
:1045B000FF3FFF3FFF3FFF3FFF3FFF3FFF3FFF3F0B
:1045C000FF3FFF3FFF3FFF3FFF3FFF3FFF3FFF3FFB
:107C700080313C280800FF3FFF3FFF3FFF3FFF3FB1
:107C8000FF3FFF3FFF3FFF3FFF3FFF3FFF3FFF3F04
:107C9000FF3FFF3FFF3FFF3FFF3FFF3FFF3FFF3FF4
:107CA000FF3FFF3FFF3FFF3FFF3FFF3FFF3FFF3FE4
:107CB000FF3FFF3FFF3FFF3FFF3FFF3FFF3FFF3FD4
:020000040001F9
:10E00000020001009000A6000100900002008A00BA
:10E010000000000000000000000000000000000000
:10E0200000000000000000000000000000000000F0
:10E0300000000000000000000000000000000000E0
:10E040000000000000000000000000000800320096
:10E0500000000000000000000000000000000000C0
:10E0600000000000000003000100000000000000AC
:10E070000100010001000100010001000100010098
:10E080000000000000000000000000000000000090
:10E090000000000000000000000000000000000080
:10E0A0000000000000000000000000000000000070
:10E0B0000000000000000000000000000000000060
:10E0C0000000000000000000000000000000000050
:10E0D0000000000000000000000000000000000040
:10E0E0000000000000000000000000000000000030
:10E0F0000000000000000000000000000000000020
:10E10000FF00FF00FF00FF00FF00FF00FF00FF0017
:10E11000FF00FF00FF00FF00FF00FF00FF00FF0007
:10E12000FF00FF00FF00FF00FF00FF00FF00FF00F7
:10E13000FF00FF00FF00FF00FF00FF00FF00FF00E7
:10E14000FF00FF00FF00FF00FF00FF00FF00FF00D7
:10E15000FF00FF00FF00FF00FF00FF00FF00FF00C7
:10E16000FF00FF00FF00FF00FF00FF00FF00FF00B7
:10E17000FF00FF00FF00FF00FF00FF00FF00FF00A7
:10E18000FF00FF00FF00FF00FF00FF00FF00FF0097
:10E19000FF00FF00FF00FF00FF00FF00FF00FF0087
:10E1A000FF00FF00FF00FF00FF00FF00FF00FF0077
:10E1B000FF00FF00FF00FF00FF00FF00FF00FF0067
:10E1C000FF00FF00FF00FF00FF00FF00FF00FF0057
:10E1D000FF00FF00FF00FF00FF00FF00FF00FF0047
:10E1E000FF00FF00FF00FF00FF00FF00FF00FF0037
:10E1F000FF00FF00FF00FF00FF00FF00FF00FF0027
:04000E00ACF9FFDF6B
:08000000FF3FFF3FFF3FFF3F00
:00000001FF
